:020000040800F2
:1000000078060020290200083102000833020008A7
:10001000350200083702000839020008000000001D
:100020000000000000000000000000003B0200088B
:100030003D020008000000003F02000841020008E5
:10004000430200084302000843020008430200087C
:100050004302000843020008DD02000843020008D2
:100060000903000835030008610300084302000883
:10007000430200084302000843020008430200084C
:10008000430200084302000843020008430200083C
:10009000430200084302000843020008430200082C
:1000A000430200084302000843020008430200081C
:1000B000430200084302000843020008430200080C
:1000C00043020008430200084302000843020008FC
:1000D00043020008430200084302000843020008EC
:1000E00043020008430200084302000843020008DC
:1000F00043020008430200084302000843020008CC
:1001000043020008430200084302000843020008BB
:1001100043020008430200084302000843020008AB
:10012000430200084302000843020008430200089B
:10013000430200084302000843020008430200088B
:10014000430200084302000843020008430200087B
:10015000430200084302000843020008430200086B
:10016000430200084302000843020008430200085B
:10017000430200084302000843020008430200084B
:10018000430200084302000800F002F800F03CF8C7
:100190000AA090E8000C82448344AAF10107DA45E2
:1001A00001D100F031F8AFF2090EBAE80F0013F0F8
:1001B000010F18BFFB1A43F001031847A406000003
:1001C000C4060000103A24BF78C878C1FAD8520794
:1001D00024BF30C830C144BF04680C6070470000C1
:1001E0000023002400250026103A28BF78C1FBD840
:1001F000520728BF30C148BF0B6070471FB500F0E1
:1002000029FB1FBD10B510BD00F031F81146FFF7F6
:10021000F5FF00F05BFA00F04FF803B4FFF7F2FFD0
:1002200003BC00F053F80000094880470948004724
:10023000FEE7FEE7FEE7FEE7FEE7FEE7FEE7FEE796
:10024000FEE7FEE704480549054A064B70470000F3
:1002500025060008890100087800002078060020A3
:10026000780200207802002070477047704775467A
:1002700000F028F8AE4605006946534620F0070016
:10028000854618B020B5FFF7DDFFBDE820404FF0F0
:1002900000064FF000074FF000084FF0000B21F070
:1002A0000701AC46ACE8C009ACE8C009ACE8C0093D
:1002B000ACE8C0098D4670470446AFF30080204685
:1002C000FFF7ABFF004870471400002001491820D9
:1002D000ABBEFEE7260002007047000010B501200B
:1002E00000F05AF801280BD10648D0F8A41281F08A
:1002F0000101C0F8A412BDE81040012000F046B88A
:1003000010BD00000080424210B5042000F044F807
:1003100001280BD10648D0F8A81281F00101C0F8DD
:10032000A812BDE81040042000F030B810BD000055
:100330000080424210B5082000F02EF801280BD1B1
:100340000648D0F8B41281F00101C0F8B412BDE83B
:100350001040082000F01AB810BD00000000424212
:1003600010B5102000F018F801280BD10648D0F87D
:10037000B81281F00101C0F8B812BDE81040102099
:1003800000F004B810BD00000000424201490860BE
:1003900070470000143C0140034A014600201268E7
:1003A0000A4200D001207047143C014030B51A4A7F
:1003B0008379016853B313688B431360111D0B6875
:1003C0000468A3430B60017911440B68046823435C
:1003D0000B60114B083319680468A14319601C1D98
:1003E00021680568A94321604179102905D011448D
:1003F0000A68006802430A6030BD19680268114348
:100400001960216800680143216030BD0079104403
:1004100002688A43026030BD003C0140F0B5002212
:1004200001274FF0030C0B6807FA02F52B40AB4293
:100430002CD1066853000CFA03F4A64306600E792B
:10044000D0F800E09E4046EA0E0606600E79012EC6
:1004500001D0022E12D18668A64386604E79D0F86C
:1004600008E09E4046EA0E0686604668AE43466057
:1004700045688E799640B6B235434560C568A54358
:10048000C560CC799C40C3681C43C460521C102AD0
:10049000C9D3F0BD0183704730B50F23C27801780E
:1004A0000125FAB1144A126801F1E02102F4E06278
:1004B000C2F5E062C2F30722C2F10404D3404278DD
:1004C000A24084781C401443220181F80024007863
:1004D00000F01F018D404009800000F1E020C0F8CD
:1004E000005130BD01F01F0085404809800000F137
:1004F000E020C0F8805130BD0CED00E00249084317
:1005000002490860704700000000FA050CED00E0A9
:10051000044A0029116801D0014300E081431160C1
:100520007047000030380240044A0029116801D0A9
:10053000014300E0814311607047000044380240ED
:1005400010B58A0721F003040849120F21440F2334
:10055000D1F8084893409C43C1F80848D1F80838BE
:1005600090400343C1F8083810BD0000003001403E
:100570000CB50022274900920192086840F48030AF
:1005800008604FF4A043086800F400300190009820
:10059000401C0090019810B900989842F3D1086867
:1005A000800334D5012001901A484030026842F09F
:1005B000805202601848026842F4404202601548C6
:1005C000083002680260026842F400420260026879
:1005D00042F4A0520260031F104A1A600A6842F0F7
:1005E00080720A600A689201FCD50D4940F20572DA
:1005F0000A60016821F003010160016841F0020115
:1006000001600168C1F381010229FAD10CBD019298
:100610000CBD000000380240007000400854400744
:10062000003C0240124810B5016841F470010160BD
:100630001048016841F0010101600E4A00210832B2
:10064000116002680C4B1A400260031D0B4A1A60CD
:10065000026822F48022026006480C300160FFF735
:1006600087FF03494FF000608039086010BD00002B
:1006700088ED00E000380240FFFFF6FE1030002455
:1006800030B500234FF0E02145F20724012505E0B5
:100690004C618B610D610A69D203FCD5401E0B6170
:1006A000F6D2002030BD4FF0E02100220A61C0EBFD
:1006B000C00000EB4000401E48618A6101200861D3
:1006C0000869C003FCD50A61002070470121202081
:1006D000FFF71EFF01211020FFF71AFF0121084636
:1006E000FFF716FF01218803FFF71EFF524C4FF062
:1006F0000108032084F8048060710026A671E67169
:100700004FF4E060DFF834912060474621464846C8
:10071000FFF784FEDFF828A14FF4C045214650467C
:100720002560FFF77BFE29114846FFF7B3FE2946F7
:100730005046FFF7AFFE2671072020602146504645
:10074000FFF76CFE21463F482760FFF767FE002158
:100750000846FFF7F5FE4FF4A060FFF7CFFE0C3C14
:10076000062020706670A670E7702046FFF794FEA2
:10077000251D0C202F602E716871AF71201DFFF7B1
:1007800015FE02210420FFF7DBFE08272770204614
:10079000FFF782FE04202860201DFFF707FE0321DB
:1007A0000420FFF7CDFE092020702046FFF774FEDD
:1007B000201D2F60FFF7FAFD04210846FFF7C0FE59
:1007C0000A2020702046FFF767FE10202860201DB9
:1007D000FFF7ECFD44461C4DDFF870901C4F4FF4C2
:1007E0007A78C5F8A462404605F52975FFF748FFF9
:1007F0002C606E604B464846FFF755FF6C60C7F8AB
:10080000B462184607F52D77FFF74DFF3C607E6018
:100810001846FFF748FF7C603E601846FFF743FF2D
:100820003C606E604046A7F52D77FFF729FF6C60AE
:10083000A5F52975D5E700000C0000200014024042
:1008400000100240000002400080424240420F007F
:10085000000042424FF04070E1EE100A7047000085
:10086000800800080000002014000000C4010008F7
:10087000940800081400002064060000E00100084D
:100880000000000000000000000000000000000068
:040890000000000064
:0400000508000229C4
:00000001FF
