:020000040800F2
:1000000078060020290200083102000833020008A7
:10001000350200083702000839020008000000001D
:100020000000000000000000000000003B0200088B
:100030003D020008000000003F02000841020008E5
:10004000430200084302000843020008430200087C
:10005000430200084302000843020008430200086C
:10006000430200084302000843020008430200085C
:10007000430200084302000843020008430200084C
:10008000430200084302000843020008430200083C
:10009000430200084302000843020008430200082C
:1000A000430200084302000843020008430200081C
:1000B000430200081105000843020008430200083B
:1000C00043020008430200084302000843020008FC
:1000D00043020008430200084302000843020008EC
:1000E00043020008430200084302000843020008DC
:1000F00043020008430200084302000843020008CC
:1001000043020008430200084302000843020008BB
:1001100043020008430200084302000843020008AB
:10012000430200084302000843020008430200089B
:10013000430200084302000843020008430200088B
:10014000430200084302000843020008430200087B
:10015000430200084302000843020008430200086B
:10016000430200084302000843020008430200085B
:10017000430200084302000843020008430200084B
:10018000430200084302000800F002F800F03CF8C7
:100190000AA090E8000C82448344AAF10107DA45E2
:1001A00001D100F031F8AFF2090EBAE80F0013F0F8
:1001B000010F18BFFB1A43F0010318476005000048
:1001C00080050000103A24BF78C878C1FAD85207D9
:1001D00024BF30C830C144BF04680C6070470000C1
:1001E0000023002400250026103A28BF78C1FBD840
:1001F000520728BF30C148BF0B6070471FB500F0E1
:1002000087FA1FBD10B510BD00F031F81146FFF799
:10021000F5FF00F0F7F900F04FF803B4FFF7F2FF35
:1002200003BC00F053F80000094880470948004724
:10023000FEE7FEE7FEE7FEE7FEE7FEE7FEE7FEE796
:10024000FEE7FEE704480549054A064B70470000F3
:10025000B504000889010008780000207806002015
:10026000780200207802002070477047704775467A
:1002700000F028F8AE4605006946534620F0070016
:10028000854618B020B5FFF7DDFFBDE820404FF0F0
:1002900000064FF000074FF000084FF0000B21F070
:1002A0000701AC46ACE8C009ACE8C009ACE8C0093D
:1002B000ACE8C0098D4670470446AFF30080204685
:1002C000FFF7ABFF004870471800002001491820D5
:1002D000ABBEFEE7260002007047F0B50022012702
:1002E0004FF0030C0B6807FA02F52B40AB422CD100
:1002F000066853000CFA03F4A64306600E79D0F8A2
:1003000000E09E4046EA0E0606600E79012E01D0FE
:10031000022E12D18668A64386604E79D0F808E096
:100320009E4046EA0E0686604668AE4346604568D3
:100330008E799640B6B235434560C568A543C56021
:10034000CC799C40C3681C43C460521C102AC9D39A
:10035000F0BD01837047000030B50F23C2780178EB
:100360000125FAB1144A126801F1E02102F4E062B9
:10037000C2F5E062C2F30722C2F10404D34042781E
:10038000A24084781C401443220181F800240078A4
:1003900000F01F018D404009800000F1E020C0F80E
:1003A000005130BD01F01F0085404809800000F178
:1003B000E020C0F8805130BD0CED00E00249084358
:1003C00002490860704700000000FA050CED00E0EB
:1003D000044A0029116801D0014300E08143116003
:1003E0007047000030380240044A0029116801D0EB
:1003F000014300E081431160704700004038024033
:100400000CB50022274900920192086840F4803020
:1004100008604FF4A043086800F400300190009891
:10042000401C0090019810B900989842F3D10868D8
:10043000800334D5012001901A484030026842F010
:10044000805202601848026842F440420260154837
:10045000083002680260026842F4004202600268EA
:1004600042F4A0520260031F104A1A600A6842F068
:1004700080720A600A689201FCD50D4940F205724B
:100480000A60016821F003010160016841F0020186
:1004900001600168C1F381010229FAD10CBD01920A
:1004A0000CBD0000003802400070004008544007B6
:1004B000003C0240124810B5016841F4700101602F
:1004C0001048016841F0010101600E4A0021083224
:1004D000116002680C4B1A400260031D0B4A1A603F
:1004E000026822F48022026006480C300160FFF7A7
:1004F00087FF03494FF000608039086010BD00009D
:1005000088ED00E000380240FFFFF6FE10300024C6
:1005100010B50A4C0121204600F021F801280CD129
:100520000748D0F8A41281F00101C0F8A4122046B7
:10053000BDE81040012100F005B810BD00040040E6
:1005400000804242C943018270470029018802D0DD
:1005500041F0010101E021F00101018070470246F4
:100560000020138A92890B4202EA010202D0002A7B
:1005700000D001207047002A828901D00A4300E0A0
:100580008A4382817047000030B50288164C174DAF
:10059000A0420DD0A8420BD0B0F1804F08D0144B30
:1005A000984205D0134B984202D0134B984203D186
:1005B00022F070034A881A43104B984206D0104B21
:1005C000984203D022F440730A891A4302804A6891
:1005D000C2620A880285A04201D0A84201D1897A6C
:1005E00001860121818230BD0000014000040140EC
:1005F0000004004000080040000C004000100040D3
:100600000014004001212020FFF7E2FE012110200C
:10061000FFF7DEFE01210846FFF7DAFE1F4D012439
:1006200003202C7168710026AE71EE714FF4E0600A
:10063000DFF86C80286029464046FFF74EFEDFF861
:1006400064904FF4C047294648462F60FFF745FEA7
:1006500039114046FFF77DFE39464846FFF779FEDF
:100660002E711C20286029464846FFF736FE294691
:100670000D482C60FFF731FE4FF4A060FFF79EFE9F
:1006800000F018F80948C0F8B842C0F8B442084869
:10069000C0F8A842C0F8A442FEE700000400002011
:1006A00000140240001002400000024000004242DC
:1006B0000080424270B501210220FFF795FE1148EB
:1006C00041F287310025416042F2CF0101800E4C9A
:1006D000458001462046FFF757FF0122114620467C
:1006E000FFF749FF09491D20012208704D708A70EB
:1006F000CA700846FFF730FE2046BDE87040012171
:10070000FFF723BF0C000020000400400000002081
:100710004FF04070E1EE100A704700003C070008FF
:10072000000000200C000000C40100084807000879
:100730000C0000206C060000E00100080000000032
:080740000000000000000000B1
:0400000508000229C4
:00000001FF
