:020000040800F2
:1000000078060020290200083102000833020008A7
:10001000350200083702000839020008000000001D
:100020000000000000000000000000003B0200088B
:100030003D020008000000003F02000841020008E5
:10004000430200084302000843020008430200087C
:100050004302000843020008DD02000843020008D2
:100060000D0300083D0300086D030008430200086B
:10007000430200084302000843020008430200084C
:10008000430200084302000843020008430200083C
:10009000430200084302000843020008430200082C
:1000A000430200084302000843020008430200081C
:1000B000430200084302000843020008430200080C
:1000C00043020008430200084302000843020008FC
:1000D00043020008430200084302000843020008EC
:1000E00043020008430200084302000843020008DC
:1000F00043020008430200084302000843020008CC
:1001000043020008430200084302000843020008BB
:1001100043020008430200084302000843020008AB
:10012000430200084302000843020008430200089B
:10013000430200084302000843020008430200088B
:10014000430200084302000843020008430200087B
:10015000430200084302000843020008430200086B
:10016000430200084302000843020008430200085B
:10017000430200084302000843020008430200084B
:10018000430200084302000800F002F800F03CF8C7
:100190000AA090E8000C82448344AAF10107DA45E2
:1001A00001D100F031F8AFF2090EBAE80F0013F0F8
:1001B000010F18BFFB1A43F0010318470C0600009B
:1001C0002C060000103A24BF78C878C1FAD852072C
:1001D00024BF30C830C144BF04680C6070470000C1
:1001E0000023002400250026103A28BF78C1FBD840
:1001F000520728BF30C148BF0B6070471FB500F0E1
:10020000DDFA1FBD10B510BD00F031F81146FFF743
:10021000F5FF00F043FA00F04FF803B4FFF7F2FFE8
:1002200003BC00F053F80000094880470948004724
:10023000FEE7FEE7FEE7FEE7FEE7FEE7FEE7FEE796
:10024000FEE7FEE704480549054A064B70470000F3
:100250003506000889010008780000207806002093
:10026000780200207802002070477047704775467A
:1002700000F028F8AE4605006946534620F0070016
:10028000854618B020B5FFF7DDFFBDE820404FF0F0
:1002900000064FF000074FF000084FF0000B21F070
:1002A0000701AC46ACE8C009ACE8C009ACE8C0093D
:1002B000ACE8C0098D4670470446AFF30080204685
:1002C000FFF7ABFF004870471400002001491820D9
:1002D000ABBEFEE7260002007047000010B501200B
:1002E00000F062F801280DD107490020C1F8A402EE
:1002F00001F5297100F0CCF901200860BDE810403B
:1003000000F04CB810BD00000080424210B504203F
:1003100000F04AF801280ED107490020C1F8A802D0
:1003200001F52A7100F0B4F901200860BDE8104021
:10033000042000F033B810BD0080424210B5082000
:1003400000F032F801280ED107490020C1F8B402AC
:1003500001F52D7100F09CF901200860BDE8104006
:10036000082000F01BB810BD0000424210B510205C
:1003700000F01AF801280ED107490020C1F8B80290
:1003800001F52E7100F084F901200860BDE81040ED
:10039000102000F003B810BD00004242014908607F
:1003A00070470000143C0140034A014600201268D7
:1003B0000A4200D001207047143C014030B51A4A6F
:1003C0008379016853B313688B431360111D0B6865
:1003D0000468A3430B60017911440B68046823434C
:1003E0000B60114B083319680468A14319601C1D88
:1003F00021680568A94321604179102905D011447D
:100400000A68006802430A6030BD19680268114337
:100410001960216800680143216030BD00791044F3
:1004200002688A43026030BD003C0140F0B5002202
:1004300001274FF0030C0B6807FA02F52B40AB4283
:100440002CD1066853000CFA03F4A64306600E791B
:10045000D0F800E09E4046EA0E0606600E79012EB6
:1004600001D0022E12D18668A64386604E79D0F85C
:1004700008E09E4046EA0E0686604668AE43466047
:1004800045688E799640B6B235434560C568A54348
:10049000C560CC799C40C3681C43C460521C102AC0
:1004A000C9D3F0BD0183704730B50F23C2780178FE
:1004B0000125FAB1144A126801F1E02102F4E06268
:1004C000C2F5E062C2F30722C2F10404D3404278CD
:1004D000A24084781C401443220181F80024007853
:1004E00000F01F018D404009800000F1E020C0F8BD
:1004F000005130BD01F01F0085404809800000F127
:10050000E020C0F8805130BD0CED00E00249084306
:1005100002490860704700000000FA050CED00E099
:10052000044A0029116801D0014300E081431160B1
:100530007047000030380240044A0029116801D099
:10054000014300E0814311607047000044380240DD
:1005500010B58A0721F003040849120F21440F2324
:10056000D1F8084893409C43C1F80848D1F80838AE
:1005700090400343C1F8083810BD0000003001402E
:100580000CB50022274900920192086840F480309F
:1005900008604FF4A043086800F400300190009810
:1005A000401C0090019810B900989842F3D1086857
:1005B000800334D5012001901A484030026842F08F
:1005C000805202601848026842F4404202601548B6
:1005D000083002680260026842F400420260026869
:1005E00042F4A0520260031F104A1A600A6842F0E7
:1005F00080720A600A689201FCD50D4940F20572CA
:100600000A60016821F003010160016841F0020104
:1006100001600168C1F381010229FAD10CBD019288
:100620000CBD000000380240007000401954400723
:10063000003C0240124810B5016841F470010160AD
:100640001048016841F0010101600E4A00210832A2
:10065000116002680C4B1A400260031D0B4A1A60BD
:10066000026822F48022026006480C300160FFF725
:1006700087FF03494FF000608039086010BD00001B
:1006800088ED00E000380240FFFFF6FE1030002445
:100690004FF08070401E0028FCDC704701212020B4
:1006A000FFF73EFF01211020FFF73AFF0121084626
:1006B000FFF736FF01218803FFF73EFF4FF4A060EC
:1006C000FFF724FF394C01260320267160710025B5
:1006D000A571E5714FF4E060DFF8D4802060214619
:1006E0004046FFF7A3FEDFF8CC904FF4C047214609
:1006F00048462760FFF79AFE39114046FFF7D2FEC1
:1007000039464846FFF7CEFE257107202060214676
:100710004846FFF78BFE214627482660FFF786FEF6
:1007200000210846FFF714FF0C3C0620207065707E
:10073000A570E6702046FFF7B7FE271D0C203E602F
:100740003D717871BE71201DFFF738FE0221042033
:10075000FFF7FEFE082626706570A5702046FFF79D
:10076000A3FE04203860201DFFF728FE032104208B
:10077000FFF7EEFE092020706570A5702046FFF798
:1007800093FE201D3E60FFF719FE04210846FFF787
:10079000DFFE0A2020706570A5702046FFF784FEFA
:1007A00010203860201DFFF709FEFEE70C00002036
:1007B0000014024000100240000002404FF0407060
:1007C000E1EE100A70470000E80700080000002072
:1007D00014000000C4010008FC07000814000020F9
:1007E00064060000E00100080000000000000000B6
:0C07F000000000000000000000000000FD
:0400000508000229C4
:00000001FF
