:020000040800F2
:1000000098C40020BD06000891040008930400086D
:10001000A7040008A9040008AB04000800000000C1
:10002000000000000000000000000000AD04000817
:10003000AF04000800000000EF70000891110008F4
:10004000D7060008D7060008D7060008D70600081C
:10005000D7060008D7060008D7060008D70600080C
:10006000D7060008D7060008D7060008D7060008FC
:10007000D7060008D7060008D7060008D7060008EC
:10008000D7060008D7060008D7060008D7060008DC
:10009000D7060008D7060008D7060008D7060008CC
:1000A000D7060008D7060008D7060008D7060008BC
:1000B000D7060008D7060008D7060008D7060008AC
:1000C000D7060008D7060008D7060008D70600089C
:1000D000D706000849130008D7060008D70600080D
:1000E000D7060008D7060008D7060008D70600087C
:1000F000D7060008D7060008D7060008D70600086C
:10010000D7060008D7060008D7060008D70600085B
:10011000D7060008D7060008D7060008D70600084B
:10012000D7060008D7060008D7060008D70600083B
:10013000D7060008D7060008D7060008D70600082B
:10014000D7060008D7060008D7060008D70600081B
:10015000D7060008D7060008D7060008D70600080B
:10016000D7060008D7060008D7060008D7060008FB
:10017000D7060008D7060008D7060008D7060008EB
:10018000D7060008D706000800F002F800F041F892
:100190000AA090E8000C82448344AAF10107DA45E2
:1001A00001D100F036F8AFF2090EBAE80F0013F0F3
:1001B000010F18BFFB1A43F001031847C871000074
:1001C000E8710000103A24BF78C878C1FAD8520705
:1001D00024BF30C830C144BF04680C6070470000C1
:1001E0000023002400250026103A28BF78C1FBD840
:1001F000520728BF30C148BF0B607047642906F022
:100200003D86002070471FB506F0ACFF1FBD10B53E
:1002100010BD06F021FF1146FFF7F5FF00F03BF897
:1002200006F03FFF03B4FFF7F2FF03BC01F02EF826
:100230004FA006F0E3FD4FF47A7453A006F0DEFD04
:10024000204600F0F8FFF8E755A006F0D7FD4FF480
:100250007A7459A006F0D2FD204600F0ECFFF8E7D2
:10026000ADF5805D4FF48051684606F043FE0024F2
:1002700057A006F0C3FD4FF47A75E1B28DF8061071
:100280008DF8FF1F0A4658A0641C06F0B7FD2846EB
:1002900000F0D1FFF1E78AB000F088FF4FF4A060D2
:1002A00000F02CFA4FF4165000F0F8FF00F0CCF9F3
:1002B00009A802F090F9002409AD05940694CDE94F
:1002C00007454FF4805040F29911CDE90210524A8F
:1002D0000520CDE9000204942346AFF27B024E488C
:1002E0004EA1C43804F0FBFEBDF8240018B14DA0A7
:1002F00006F084FDFEE7059406940C274F48CDE9EF
:100300000745CDE90107802606200023AFF2C7028A
:1003100000904A48CDE9036449A1C43804F0DFFEE7
:10032000BDF8240018B148A006F068FDFEE705946A
:1003300006944B48CDE90745CDE901070720002386
:10034000AFF2131200904648CDE9036445A1C438CA
:1003500004F0C5FEBDF8240018B144A006F04EFD1F
:10036000FEE709A802F092FA46A006F047FDFEE774
:100370007461736B332069732063726561746520E7
:100380006F6B0D0A000000007461736B332069739A
:100390002072756E6E696E67202E2E2E0D0A00007B
:1003A0007461736B322069732063726561746520B8
:1003B0006F6B0D0A000000007461736B322069736B
:1003C0002072756E6E696E67202E2E2E0D0A00004B
:1003D0007461736B31206973206372656174652089
:1003E0006F6B0D0A000000007461736B312069733C
:1003F0002072756E6E696E67202E2E2E2C627566C9
:100400005B365D3D25642C6275665B343039355D45
:100410003D25640D0A000000AC0100205461736B9F
:10042000310000007461736B203120637265617468
:1004300065206661696C0D0A0000000070420020B2
:100440005461736B320000007461736B203220635F
:100450007265617465206661696C0D0A00000000B8
:10046000344500205461736B330000007461736B7A
:10047000203320637265617465206661696C0D0AC2
:10048000000000002E2E2E2E2E2E2E0D0A00000013
:10049000704707A006F0B2FC05A006F0AFFC04A070
:1004A00006F0ACFCFEE7FEE7FEE7FEE770477047AC
:1004B000486172644661756C745F48616E646C6516
:1004C000722068617070656E640D0A000CB50022C0
:1004D000544900920192086840F4803008604FF45B
:1004E000A043086800F4003001900098401C009080
:1004F000019810B900989842F3D10868800334D568
:100500000120019047484030026842F0805202606A
:100510004548026842F4404202604248083002689E
:100520000260026842F400420260026842F4A05293
:100530000260031F3D4A1A600A6842F080720A6036
:100540000A689201FCD53A4940F205720A600168D6
:1005500021F003010160016841F0020101600168BE
:10056000C1F381010229FAD10CBD01920CBD3148C1
:1005700010B5016841F4700101602A48016841F03A
:1005800001010160274A00210832116002682A4BEC
:100590001A400260031D294A1A60026822F4802270
:1005A000026020480C300160FFF790FF21494FF0B6
:1005B00000608039086010BD70B51A4D0835286894
:1005C0001F4B204910F00C0004D05E10042803D00B
:1005D000082803D00B601BE00E6019E0114A121DC1
:1005E0001068C0F38054106800F03F0014B1B6FBEF
:1005F000F0F001E0B3FBF0F013681268C3F3881366
:100600005843C2F30142521C5200B0FBF2F00860A2
:1006100028680C4AC0F30310121D105C0A68C2401F
:100620000A6070BD00380240007000400854400766
:10063000003C024088ED00E0FFFFF6FE1030002491
:100640000024F400000000202DE9FC4701213020A7
:1006500000F01BFB01248DF8044000268DF8066095
:100660000327DFF850904FF4C0658DF805700095B2
:100670008DF807406946484600F004F98DF80440BB
:100680008DF806608DF805708DF807400A4C4FF420
:10069000C048CDF800806946204600F0F3F82946AE
:1006A000484600F054F94146204600F050F9BDE8B4
:1006B000FC870000001402400010024009488047F7
:1006C00009480047FEE7FEE7FEE7FEE7FEE7FEE734
:1006D000FEE7FEE7FEE7FEE704480549054A064B4C
:1006E000704700006F050008890100089864002029
:1006F00098C400209884002098840020284908434A
:1007000028490860704730B50F23C2780178012569
:10071000FAB1244A126801F1E02102F4E062C2F564
:10072000E062C2F30722C2F10404D3404278A2403F
:1007300084781C401443220181F80024007800F0E2
:100740001F018D404009800000F1E020C0F80051F9
:1007500030BD01F01F0085404809800000F1E02015
:10076000C0F8805130BD104A114001430D48001FB0
:10077000016070470B4A121D0029116801D0014326
:1007800000E08143116070474FF0E02104280869C0
:1007900003D020F004000861704740F00400FAE73D
:1007A0000000FA050CED00E080FFFF1F774910B54F
:1007B000884206D10121084600F099FA0021012063
:1007C0005BE07349884206D10121022000F08FFAD4
:1007D0000021022051E06F49884206D10121042006
:1007E00000F085FA0021042047E06B49884206D1D9
:1007F0000121082000F07BFA002108203DE0674934
:10080000884206D10121102000F071FA0021102049
:1008100033E06349884206D10121202000F067FAC5
:100820000021202029E05F49884206D10121402093
:1008300000F05DFA002140201FE05B49884206D1AC
:100840000121802000F053FA0021802015E0574953
:10085000884202D1012184150AE05549884202D11B
:100860000121441504E0534988420AD101210415AD
:10087000204600F03CFA00212046BDE8104000F080
:1008800036BA10BDF0B5002201274FF0030C0B68FB
:1008900007FA02F52B40AB422CD1066853000CFA44
:1008A00003F4A64306600E79D0F800E09E4046EAC5
:1008B0000E0606600E79012E01D0022E12D1866836
:1008C000A64386604E79D0F808E09E4046EA0E06C0
:1008D00086604668AE43466045688E799640B6B2FB
:1008E00035434560C568A543C560CC799C40C36865
:1008F0001C43C460521C102AC9D3F0BD4FF6FF71CF
:1009000001600021017141718171C171704708B5A9
:1009100041F480320092C261C1610099C161C16934
:10092000C069009008BD0246002012690A4200D04A
:1009300001207047006980B270470246002052696A
:100940000A4200D001207047406980B2704701839D
:100950007047418370470AB10183704741837047F4
:100960004161704742694A40426170474B07DB0E64
:100970009A40C90810B500EB8100016A0F249C4021
:10098000A1430162016A1143016210BD00000240EF
:100990000004024000080240000C02400010024027
:1009A0000014024000180240001C024000200240D7
:1009B0000024024000280240F848016841F001018B
:1009C0000160F64A0021083211600268F44B1A40B7
:1009D0000260031DF34A1A60F04BF34A84331A6035
:1009E000F04A103A1B1D1A60026822F4802202604D
:1009F000EA480C300160181D01607047E749002289
:100A0000891C0A70087070470246002051090129AC
:100A10000CD002290CD0E1497431096802F01F02A0
:100A2000012393400B4200D001207047DB49F4E7DB
:100A3000DA497031F1E718B500204FF4A044009076
:100A40003120FFF7E1FF0099491C0091A14201D03C
:100A50000028F5D03120FFF7D7FF002800D0012073
:100A600018BDCE4A116821F0F80141EAC0001060BB
:100A70007047CE4908607047C849002270310A703B
:100A80000A70012802D0042801D10520087070479F
:100A9000C7490860704741EA82115A0810B5C54B32
:100AA000029C03EB02421143014341EA0460BB494B
:100AB000091D086010BDBD4908667047800140EA05
:100AC0000170B649843108607047B849886670473C
:100AD000800140EA0160B14940EA02708831086053
:100AE0007047B24908677047B049C8647047AB4B5C
:100AF00008331A68084322F0EC621043186070470C
:100B0000A64B08331A68084322F078421043186055
:100B10007047A24A0832116821F0030101431160B5
:100B200070479E480830006800F00C0070479B4AF0
:100B30000832116821F0F001014311607047974AB3
:100B40000832116821F4E051014311607047934A63
:100B50000832116821F4604141EAC000106070471A
:100B600070B58E4B08331968934C11F00C0104D00A
:100B70006610042903D0082903D004601BE0066036
:100B800019E0864A121D1168C1F38055116801F001
:100B90003F0115B1B6FBF1F101E0B4FBF1F11468CE
:100BA0001268C4F388146143C2F30142521C52001C
:100BB000B1FBF2F1016019680F2202EA11117F4ABC
:100BC000545C0168E14041601C68072505EA9424F3
:100BD000145D21FA04F484601B6805EA5333D25C87
:100BE000D140C16070BDC0F30121032908D16B4B16
:100BF00008331968724A21F4F81102400A431A6056
:100C0000664970310A68C0F30B0002430A607047FE
:100C10006749443908607047654940390860704742
:100C20006249C1F85C0170475C4A8C321168401E11
:100C300021F01F01014311607047584A8C3211683E
:100C40006FF0FF0321F4F85103EB0020084310601C
:100C50007047524A8C32116821F4401101431160EF
:100C600070474E4A8C32116821F4400101431160F3
:100C700070474A4A8C32116821F4403101431160B7
:100C800070475049C1F8E0017047444A30320029AA
:100C9000116801D0014300E08143116070473F4A71
:100CA00034320029116801D0014300E08143116012
:100CB00070473A4A38320029116801D0014300E0F8
:100CC000814311607047354A40320029116801D0D4
:100CD000014300E0814311607047304A44320029EB
:100CE000116801D0014300E08143116070472B4A35
:100CF00010320029116801D0014300E081431160E6
:100D00007047264A14320029116801D0014300E0DF
:100D1000814311607047214A18320029116801D0BF
:100D2000014300E08143116070471C4A20320029D2
:100D3000116801D0014300E0814311607047174AF8
:100D400024320029116801D0014300E08143116081
:100D50007047124A50320029116801D0014300E067
:100D60008143116070470D4A54320029116801D047
:100D7000014300E0814311607047084A583200295E
:100D8000116801D0014300E0814311607047034ABC
:100D900060320029116817D0014316E00038024084
:100DA000FFFFF6EA10300024003000200000474228
:100DB000800E47420000FFFF0024F40014000020D2
:100DC000FFFCFF0F00104742814311607047194A32
:100DD0000029116801D0014300E081431160704790
:100DE00014490C310128086803D020F0080008607D
:100DF000704740F00800FAE70E4A573A0029117888
:100E000001D0014300E08143117070470948103060
:100E1000016841F08071016070470146054A002079
:100E2000583A12680A4200D00120704701495639E9
:100E30000870704764380240CD4910B5884206D129
:100E400001211020FFF77BFF0021102020E0C9497D
:100E5000884202D101214C0429E0C749884202D1CD
:100E600001218C0423E0C549884202D10121CC0430
:100E70001DE0C349884202D101210C0517E0C14998
:100E8000884209D101212020FFF759FF00212020AD
:100E9000BDE81040FFF753BFBB49884202D1012192
:100EA0008C0704E0B94988420AD101214405204653
:100EB000FFF73BFF2046BDE810400021FFF735BF9C
:100EC00010BD7FB50446008A0D46C98820F4405005
:100ED00001432182A08941F20C618843A9882A89B3
:100EE00011436A8902431143A181A08A20F4407111
:100EF000A8890843A0826846FFF732FE9C488442D6
:100F000002D0A048844201D1039800E00298A18950
:100F1000090400EBC00101EB0010296801D549006C
:100F200000E08900B0FBF1F06422B0FBF2F10901AE
:100F30000B096FF018056B4300EB8300A3891D04B8
:100F40004FF0320306D503EBC000B0FBF2F000F027
:100F5000070005E003EB0010B0FBF2F000F00F001B
:100F6000084320817FBD4FF416510160002181802C
:100F7000C18001810C2242818181704710B5028AB3
:100F80004C8822F470630A8822438C88C9880C43F9
:100F900022431A43028210BD0021018041808180DA
:100FA000C18070470029818902D041F4005101E0DD
:100FB00021F4005181817047028B02F47F42028349
:100FC000028B0A43028370470029818902D041F4D1
:100FD000004101E0C1F30E01818170470029818A3F
:100FE00002D041F4006101E021F400618182704788
:100FF000C1F30801818070478088C0F30800704702
:10100000028A22F00F020282028A0A430282704799
:101010000029818902D041F0020101E021F00201A2
:1010200081817047828922F40062828182890A4329
:1010300082817047028A22F020020282028A0A43D9
:10104000028270470029018A02D041F4804101E008
:1010500021F4804101827047818941F00101818141
:1010600070470029818A02D041F0080101E021F097
:10107000080181827047028BD2B20283028B42EA5E
:101080000121018370470029818A02D041F02001AB
:1010900001E021F02001818270470029818A02D07D
:1010A00041F0100101E021F0100181827047828A35
:1010B00022F004028282828A0A43828270470029D7
:1010C000818A02D041F0020101E021F00201818217
:1010D0007047002A828A01D00A4300E08A43828254
:1010E000704710B5C1F3421301F01F040121A14064
:1010F000012B07D0022B07D01430002A026805D03C
:101100000A4304E00C30F8E71030F6E78A43026047
:1011100010BD0246002012880A4200D0012070470C
:10112000C9430180704770B501F01F0501260024F6
:10113000C1F3421306FA05F2012B0FD0022B0FD098
:10114000838A4FEA11210088134206FA01F600EA69
:10115000060001D000B10124204670BD8389F0E76C
:10116000038AEEE70A0A01219140C94301807047D2
:10117000001001400044004000480040004C004086
:10118000005000400014014000780040007C004006
:10119000374810B50078012807D101F09EFA05F014
:1011A0002CF9BDE8104001F0A3BA10BD10B56FF0E6
:1011B0000400FFF7E9FA2F482F49304B0068314C03
:1011C000B0FBF1F2B0FBF1F01A802D4A1168B4FBCC
:1011D000F1F1414310684FF47A72B2FBF0F058809D
:1011E0004FF0E020026942F00202026141610169B0
:1011F00041F00101016110BDF8B54FF0E027002476
:101200007E691E49098800FB01F5684601F0D7FA9E
:10121000B969B8698842FCD002D2A1EB000102E0B2
:10122000A6EB000211440C440146AC42F1D36846DF
:1012300001F0FEFAF8BD38B504460D48007888B1D3
:101240001148007870B90D4D6888844205D3B4FB0D
:10125000F0F06A46082104F073FF6888B4FBF0F1EF
:1012600000FB11444FF47A706043FFF7C5FF38BDAF
:101270005D0000200000002000127A002400002001
:101280005073000840420F005C000020704739494D
:101290000A885206FCD5C2B28A807047F0B506466D
:1012A000012187B00846FFF7F0FC01211020FFF76D
:1012B00014FD314D072209212846FFF757FB07226D
:1012C0000A212846FFF752FB02218DF814108DF8F1
:1012D00015104FF4C060002404908DF816400127CB
:1012E0008DF8177004A92846FFF7CCFAADF8044032
:1012F000ADF80640ADF80840ADF80C400C201D4C90
:10130000ADF80A00009669462046FFF7DAFD012194
:101310002046FFF747FE40212046FFF701FF01224C
:1013200040F225512046FFF7DCFE25208DF81800FD
:1013300003208DF819008DF81A008DF81B7006A88F
:10134000FFF7E1F907B0F0BD70B501F0C6F9094C3F
:1013500040F2255529462046FFF7E5FE30B12046EC
:10136000FFF74AFE29462046FFF7FCFEBDE8704025
:1013700001F0BEB900100140000002401FB56846F0
:10138000FFF7EEFB019804B010BD10B5FFF7F6FFB4
:1013900011490A6842F080720A60104900224A60CE
:1013A0000A6842F001020A60BDE8104000F076B819
:1013B0000A484068704710B50446FFF7DFFF002178
:1013C000074A0B4605F0A3FC02460B4620460021C7
:1013D00005F09DFC10BD0000FCED00E0001000E0F9
:1013E00040420F0010B500F0DFF8044610216948B4
:1013F00000F0D8F92046BDE8104000F0D9B86649A1
:1014000010B500200860FFF7C0FFBDE81040E9E715
:10141000FEE770B505460C000ED075B100F0C4F8BB
:10142000064610225B49284600F0C4FC304600F016
:10143000BFF80020208070BDFEE70A20088070BD44
:1014400070B50C00054612D095B1102100F0A4FC37
:10145000102810D200F0A8F80646102229464D4860
:1014600000F0A8FC304600F0A3F8002005E0FEE7FD
:101470000A20088070BD4FF47A70208070BDFFF79D
:1014800097BF7047020004D04348006810B10021A4
:1014900002E0FEE74FF4FA61118070473E490860B0
:1014A000704710B500F08BF8183810BD10B500F07B
:1014B00086F8103810BD00F082B8F0B50C0E0B0C99
:1014C0000D0A0026354AD0F1FF378E411BD24FF668
:1014D000FF76D0F1FF378E410AD26FF07F45D0F111
:1014E000FF308D4101D2105DF0BDD05C0830F0BD01
:1014F000FF23D0F1FF308B4102D2505D1030F0BDA0
:10150000505C1830F0BD4FF6FF740023241A8B4155
:1015100011D26FF07F440023241A8B4105D2000EB4
:1015200040EA0120105C2030F0BD000C40EA014090
:10153000105C2830F0BD0023D0F1FF048B4105D2B0
:10154000000A40EA0160105C3030F0BD105C3830B9
:10155000F0BD08B100F036B80820704708B100F0BF
:1015600031B81020704708B100F02CB82020704727
:1015700000B550EA01020BD0C243521CCB4343F1E9
:10158000000310401940FFF798FFC0F13F0000BD75
:10159000402000BD344700202C0000206E71000860
:1015A00072B6704762B67047EFF3108072B670473C
:1015B00080F31088704730BF704720BF7047B0FA83
:1015C00080F0704790FAA0F0B0FA80F0704790FA7F
:1015D000A0F07047A0F14101192902D961381928FA
:1015E00001D80120704700207047A0F1410119295E
:1015F00005D92039192902D93038092801D8012004
:101600007047002070476138192801D801207047C1
:10161000002070474138192801D801207047002068
:1016200070473038092801D80120704700207047E2
:101630003038072801D80120704700207047A0F1FA
:101640003001092905D91139052902D96138052840
:1016500001D80120704700207047202803D00928B6
:1016600001D0002070470120704720280BD00D28A2
:1016700009D00A2807D00C2805D0092803D00B2848
:1016800001D0002070470120704720385E2801D823
:10169000012070470020704721385D2801D80120C3
:1016A000704700207047A0F120015E2916D820283D
:1016B00014D00D2812D00A2810D00C280ED00928DA
:1016C0000CD00B280AD021391A2907D320391A291E
:1016D00004D330380A2801D3012070470020704716
:1016E00041B2002901DB1F2803D97F2801D0002047
:1016F000704701207047A0F14101192900D820301E
:10170000C0B27047A0F16101192900D82038C0B2D9
:10171000704700B50B46FFF7F5FF02461846FFF786
:10172000F1FF824201D1012000BD002000BD000078
:10173000FD48FE490246C0E9001200218160C160F7
:10174000016141618161C16101620163C162416204
:1017500000F148018163C1634FF480610164416419
:10176000F3480260704710B500231C46641C41EA30
:101770000323042CFAD310F0030404D109E0521E11
:1017800000F8011B641C22B1042CF8D301E008C04E
:10179000121F042AFBD202E000F8011B521E002A8D
:1017A000FAD110BD0A460021DDE730B4814202D9EA
:1017B00030BC00F0C5BD10441144401E491E431A00
:1017C000042B28D300F0030301F00304A34201D14A
:1017D000012400E00024F4B1032B07D109E05B1ED3
:1017E00011F8014900F801495BB2521E0AB1002B01
:1017F000F5DAC01EC91E04E051F8043940F8043976
:10180000121F042AF8D2C01CC91C04E011F80139C7
:1018100000F80139521E002AF8D130BC704770B56B
:10182000034662B16BB161B113441144012003F06E
:10183000030401F00305AC4205D1012504E00120B9
:1018400070BD002070BD0025DDB1BCB113F8015D95
:1018500011F8016DB54200D00020521E641E01280F
:10186000F0D1002AF1D109E053F8044D51F8045D9C
:10187000AC4200D00020121F01280AD1042AF3D262
:1018800007E013F8014D11F8015DAC4200D00020D3
:10189000521E0128D6D1002AF3D170BD30B5C36BDA
:1018A000B3FBF2F402FB14340CB1121B00E0002273
:1018B000446C11448C4201D2002030BD5D18611A85
:1018C000C5631A444164104630BD10B5B0FBF3F453
:1018D00003FB140000B1181AB2FBF3F403FB142449
:1018E0000CB11B1B00E0002310441A44491E02FBEC
:1018F000010010BD2DE9FC5F1F4614008A46834697
:1019000000D101AC0020884E2060FFF74DFE009012
:1019100053465A460121D6F84480F06BFFF7D5FFB5
:10192000054642F2E279404506D90098FFF740FEAD
:10193000A5EB0800206012E0524659463046FFF7FA
:10194000ADFF0600009807D0FFF732FE42F210709C
:1019500038803046BDE8FC9FFFF72AFE2560A7F8D7
:1019600000900020F6E72DE9F04116460D460446AA
:10197000FFF71AFE6368996B01B96B4BDF6B5C6C08
:10198000FFF716FE012D06D9B7FBF5F005FB107029
:1019900000B1281A241A42F2107030802046BDE8A7
:1019A000F0810A4601466048DDE7B8B1614A02604D
:1019B000002242608260C260026142618261C26153
:1019C0000262826242630263C26242628263C263F3
:1019D0000264426442F210700880704742F2117053
:1019E000FAE72DE9FF4F89B08A46DDE91879044608
:1019F00007B906AF0020386049462046FFF7D5FFFB
:101A0000B9F80010A1F51C50103859D148480068A9
:101A100090B10020DFF810810290FFF7C5FD05901E
:101A20005FEA0A000BD002460B98002613184048C4
:101A3000B3465B1E056848E042F2E7713EE0D8F825
:101A40003C1003910423C34645461A460C9903985B
:101A5000FFF73BFF0399049008440890DDE9162343
:101A60000C99FFF732FF009000990498464608440D
:101A70000290D8F844100191884261D90598FFF787
:101A800097FDDDE901103CE0A86B504506D1D5F883
:101A900040C00B998C4501D12E4618E0296C0144B9
:101AA000491E834213D3824203D98B4201D98A4211
:101AB00009D80598FFF77CFD42F27F71A9F8001064
:101AC0000DB0BDE8F08FAB46ED68002DDCD136B926
:101AD000C4E90EAA0B9820640B9826466064042380
:101AE0001A46D8F83C000C99FFF7EFFE0490D8F89E
:101AF00044100191884206D90598FFF759FD0199D4
:101B00000498401A34E0F06B0890DDE916230C9934
:101B1000FFF7DBFE0090716C0191884210D90598A7
:101B2000FFF746FD08E000004447002048454150CB
:101B3000300000204E4F4E45DDE90001401A46E0DE
:101B40000C9804228000014601904046FFF7A6FE53
:101B5000039008B100201CE0D8F844400598FFF736
:101B600027FDBAF1000F07D00198A04200D9001B51
:101B7000386042F2E27054E00298F6E7DDE91612AE
:101B80003046FFF78BFE90B1039941F8280008F129
:101B900001000C9980468842F0D3A64220D1C4E9C6
:101BA00002B55FEA0B0016D0CBF80C4015E0F56BE0
:101BB000746C0598FFF7FCFC0C98DDE91623A0EB8C
:101BC00008012846FFF781FEA04200D9001B3860BB
:101BD00042F2D87025E06E4804603DB1AC6005E08B
:101BE0007069C4E90460746100B104616948C4E9C2
:101BF00000060898A061009908980844401EE0611A
:101C0000039820620098A06217986063169820637A
:101C10000C98E0620C9860620598FFF7C9FC42F2EC
:101C20001070A9F800004BE770B50D460446FFF7A9
:101C3000BBFC646AFFF7BCFC42F2107028802046AF
:101C400070BD70B515460446FFF7AEFC616A49B138
:101C5000E26A91420BD9FFF7ABFC42F29570288003
:101C6000002070BDFFF7A4FC42F2DE70F7E7491ECA
:101C70006162226A52F82140FFF79AFC42F210702A
:101C80002880204670BD70B514460E460546FFF705
:101C90008BFCEA6A911B491E42F295768A4202D970
:101CA0006A6A8A4204D9FFF783FC2680002070BD4F
:101CB0002A6A52F82150FFF77BFC42F21070208014
:101CC000284670BD2DE9F04116460D460446FFF743
:101CD0006BFCE76A626A8446BA4204D3FFF768FC89
:101CE00042F2DD701EE04FF0000E1346206A04E061
:101CF00050F82310A94205D05B1C9F42F8D8BEF1D2
:101D0000000F03D050F8221040F82310D4E9080146
:101D100040F82150606A401C60626046FFF748FC52
:101D200042F2107030803AE62DE9F04115460E4639
:101D300004464FF0FF37FFF737FC0246E16A606A5E
:101D4000884205D31046FFF733FC42F2DD701CE0F9
:101D50004FF0000C05E0236A53F82030B34205D061
:101D6000401C8142F7D8BCF1000F09D00C1A104674
:101D7000641EFFF71DFC42F21070288020460EE61C
:101D80001046FFF715FC42F288702880384606E6B8
:101D900030000020504F4F4C002201E0401C521CEC
:101DA00018B103780BB18A42F8D3104670474FF050
:101DB000FF31F1E730B5002811D089B10346002486
:101DC00005E0491C03F8015B641C4BB141B10D787F
:101DD0000DB19442F5D3944201D20021197030BD67
:101DE000002030BD4FF0FF32E4E730B5002816D0B8
:101DF000B1B1002A13D0034601E05B1C10D01C785F
:101E0000002CFAD104E0491C03F8015B641C3BB1CF
:101E100031B10D780DB19442F5D30021197030BD68
:101E2000002030BD4FF0FF32DFE7F0B532B330B104
:101E300011B304460B46401C491C002508E0E9B1DB
:101E400008784042F0BD401C491C5B1C641C6D1CA2
:101E500026781F78BE4204D11EB110B109B1954257
:101E6000F1D395420AD0F4B2FAB2944201D0B01A3A
:101E7000F0BD1EB10028E2D00078F0BD0020F0BD1A
:101E80004FF0FF32D1E72DE9F0475FEA020A41D077
:101E900070B181B10446461C0F464D1C0078FFF717
:101EA0002AFC81463878FFF726FC4FF0000811E045
:101EB00079B3087829E0007821E008F1010814F8E6
:101EC000010F6D1C761C7F1CFFF715FC81463878CE
:101ED000FFF711FC814505D1217819B116B10DB17B
:101EE000D045EAD3D04515D04946814503D0A9EB6A
:101EF0000000BDE8F0870800FBD026B13078BDE8CF
:101F0000F047FFF7F8BB25B12878FFF7F4FB404214
:101F1000EFE7FFE70020ECE74FF0FF32B3E710B543
:101F2000002812D081B1002303E0401C03F101031B
:101F30000BD004781CB1944201D08B42F5D38B4274
:101F400002D2E1B2914200D0002010BD0A464FF00B
:101F5000FF31E4E730B5154604000FD071B1491EDA
:101F6000FFF71AFF20180AD000E0401EA04202D05E
:101F70000178A942F9D10178A94200D0002030BDF2
:101F80000A464FF0FF31E5E730B5002803D00BB12A
:101F9000044607E0002030BD8D4200D122705B1E58
:101FA000641CF8D02578002DF5D0002BF4D130BD7D
:101FB0004FF0FF33E8E72DE9F0418C46060032D0C0
:101FC000BCF1000F2FD072B3501C01D0511C01E0A6
:101FD0004FF0FF310D4611463046FFF7DDFE044657
:101FE00029466046FFF7D8FE050014D0A5421AD84E
:101FF000301911D01CEB05000ED0671B00243019DE
:1020000080462A466146FFF710FF010006D00020F7
:10201000641C28B106E03046BDE8F0810120F7E7F6
:10202000BC42ECD909B10020F6E74046F4E74FF096
:10203000FF32C0E72DE9FF5F074611980E9D144659
:10204000894600286CD00026B246B9F1000F00D1B5
:102050000126A01E232800D3012615B32846FFF72A
:1020600014FB01281CD1302D1BD0A5F13000C1B2CA
:102070000F98012802D0A5F1410001E0A5F161000F
:10208000C0B20A2C02D8A14206D307E00A2903D322
:10209000A4F10A01884201D2012000E0002000B131
:1020A0000126119A56BBB846012003E0B8FBF4F8AC
:1020B000401CC0B2A045F9D20399012900D00021EB
:1020C00000EB010CCC4518D84FF0000B4B464845AF
:1020D00000D318464DB1A9EB0000401A4B4610F052
:1020E000FF0F04D0302D04D001E00844C3B200201B
:1020F00000E0012082460EB901E001264B4610990E
:10210000D01809B1002101700021401E04E056B131
:102110003F2200F80129491C9942F8D39EB30020C0
:1021200004B0BDE8F09F27B919B1039A012A16D06F
:1021300024E0B7FBF4F204FB1272D2B20A2A01D2F5
:10214000303207E0DDF83CC0BCF1010F01D037327E
:1021500000E05732B7FBF4F700F80129DBE75AEA51
:102160000B0205D0BAF1000F08D05A1E914205D1DA
:102170002D2200F801294FF0010BCCE7002DCAD029
:1021800000F80159C7E7FFE71198C9E77FB50DF1DE
:10219000200C9CE870008DE878000023FFF74AFFD0
:1021A00004B070BD2DE9FF411C46DDE90B650A9FB7
:1021B000002802DA4042012300E00023CDE9004775
:1021C000CDE90265FFF736FF04B025E72DE9FF5F93
:1021D0001E4615465FEA0109824601D10DF1080944
:1021E000C9F800A00E9808B903A80E90002101704C
:1021F0005FEA0A0003D0012D01D0242D01D900206F
:102200008EE70446007801E014F8010FFFF72DFA7D
:102210000128F9D020782B2803D02D2805D00020C4
:1022200007E04FF0000B641C04E0012E00D1641C99
:1022300001208346019425B1082D11D0102D22D103
:1022400012E02078302801D00A251CE014F8010F94
:10225000582803D0782801D0082514E010250CE078
:10226000207830280ED00EE0207830280BD114F8DA
:10227000010F582801D0782805D16078FFF7DFF9E1
:10228000012800D1641C0026B04600962778384605
:10229000FFF7ABF9012824D13846FFF7C2F901282E
:1022A0000CD03846FFF7AFF9012809D0373FF9B213
:1022B000A94216D2B8F1000F04D00EE0303FF6E785
:1022C000573FF4E71D4850F82500B04203D306FB02
:1022D00005168E4201D24FF001080098641C0028B8
:1022E000D4D0B8F1010F01D14FF0FF3601988442EC
:1022F00002D0C9F8004001E0C9F800A00E993046AC
:1023000081F800B00CE708B500230093FFF75EFFEB
:1023100008BD1CB501AB00930123FFF757FF9DF8E3
:1023200004204FF0004122B1884200D241420846C9
:102330001CBD8842FCD36FF000401CBD70720008C9
:10234000002800D17047002900D17047002A00D131
:1023500070472DE9F81F00F0030301F00304A342C6
:1023600011D1C3F1040303F00303012B1DD3012A90
:1023700000D2F2E011F8014B00F8014BA3F1010388
:10238000A2F10102F1E700F0010301F00104A34210
:1023900000D094E0012B44D311F8014B00F8014B1D
:1023A000A3F10103A2F10102F4E7B2F5B47F26D351
:1023B000B1E8F81FA0E8F81FB1E8F81FA0E8F81F7F
:1023C000B1E8F81FA0E8F81FB1E8F81FA0E8F81F6F
:1023D000B1E8F81FA0E8F81FB1E8F81FA0E8F81F5F
:1023E000B1E8F81FA0E8F81FB1E8F81FA0E8F81F4F
:1023F000B1E8F81FA0E8F81FA2F5B472D5E7282AC3
:1024000006D3B1E8F81FA0E8F81FA2F12802F6E70A
:10241000042A06D351F8043B40F8043BA2F104021D
:10242000F6E7202A42D331F8023B20F8023B31F88C
:10243000023B20F8023B31F8023B20F8023B31F826
:10244000023B20F8023B31F8023B20F8023B31F816
:10245000023B20F8023B31F8023B20F8023B31F806
:10246000023B20F8023B31F8023B20F8023B31F8F6
:10247000023B20F8023B31F8023B20F8023B31F8E6
:10248000023B20F8023B31F8023B20F8023B31F8D6
:10249000023B20F8023B31F8023B20F8023B31F8C6
:1024A000023B20F8023BA2F12002BAE7022A06D33F
:1024B00031F8023B20F8023BA2F10202F6E7102AB3
:1024C00042D311F8013B00F8013B11F8013B00F841
:1024D000013B11F8013B00F8013B11F8013B00F80A
:1024E000013B11F8013B00F8013B11F8013B00F8FA
:1024F000013B11F8013B00F8013B11F8013B00F8EA
:10250000013B11F8013B00F8013B11F8013B00F8D9
:10251000013B11F8013B00F8013B11F8013B00F8C9
:10252000013B11F8013B00F8013B11F8013B00F8B9
:10253000013B11F8013B00F8013B11F8013B00F8A9
:10254000013BA2F11002BAE7012A06D311F8013BC0
:1025500000F8013BA2F10102F6E7BDE8F81F704761
:1025600070470000F94CFFF71FF82168491C2160F3
:10257000FFF71EF804F09AFAF5E700B5F34A89B0C0
:10258000002111600B2205910691CDE90720F0484A
:10259000F04AF14B006812681B680292CDE9030112
:1025A0003F20CDE900030023AFF24702EBA1F04842
:1025B00002F095FD09B000BD0020EE4B024600EB95
:1025C000400103EB8101401C0A810A60C0B24A60ED
:1025D0004028F4D3704710B5044604F06DFAE6487D
:1025E0000022F0490270E5480270E5480270E548B3
:1025F0000260E5480260E5480270E5480270E5487F
:102600000270E5480260E5480260E548026008683B
:1026100030B1E548006818B1096804C0491EFCD112
:10262000E2480260E2480260E2480260E24802607A
:10263000E2480260E2480260E2480260E24802705A
:1026400001F082FEFFF7B8FF204600F0F0FF20887F
:10265000002841D1204601F030FA208800283BD1E3
:10266000204601F053FA2088002835D1204601F099
:1026700054FE208800282FD1204602F091F92088AE
:10268000002829D1204602F039FC2088002823D1D7
:10269000204603F085FB208800281DD1204601F04C
:1026A000BAF82088002817D12046FFF766FF208857
:1026B000002811D1204603F071FC208800280BD19E
:1026C000204604F063F92088002805D100F00EFCB4
:1026D000BDE81040FFF744BF10BDA84800780128AE
:1026E00005D1A5490878FA2801D2401C0870704726
:1026F000A24810B5007801282BD1FEF755FF9E495E
:102700000446087800B3401E10F0FF0008701BD18B
:102710009B480078C0B901F020FE9D49087095499A
:1027200000EB400051F8200097490860954909687E
:10273000884209D050F8901F491C0160A3480168E5
:10274000491C016004F0CEFC2046BDE81040FEF7B5
:102750002FBF10BD884810B50078002824D18848C4
:102760000078002820D1FEF71FFF044601F0F5FD98
:10277000874908707F4900EB400051F820008249EA
:10278000086080490968884209D050F8901F491CA8
:1027900001608E480168491C016004F09EFC2046DF
:1027A000BDE81040FEF704BF10BD754810B50078B5
:1027B000012803D1FEF7FCFD7749086010BD70B514
:1027C00004466D48007810B146F6625019E06B4837
:1027D0000078012802D045F6896012E0684D28781B
:1027E000FA2802D345F209200BE0FEF7DDFE06468B
:1027F0002878401C2870FFF7D8FF3046FEF7D8FE37
:102800000020208070BD5E4810B5007800280ED1F1
:10281000FEF7CEFD60490968401A60490A688242A5
:1028200000D208605E490A68824200D2086010BD8A
:1028300070B504465048007810B146F6655023E064
:102840004E480078012802D045F689601CE04C4EC5
:10285000307870B1FEF7A8FE05463078401E10F0C3
:10286000FF00307008D02846FEF7A2FE46F66350FF
:102870000AE046F6645007E0FFF7C5FF2846FEF77A
:1028800097FEFFF767FF0020208070BD70B53B4DBD
:102890000446287818B145F68A60208070BD01F0A2
:1028A0005CFD3B49087039490870324900EB400033
:1028B00051F820003449086032490860012028702E
:1028C00004F0FAFB43F69920E7E70021018047F284
:1028D0005C60704738B14268C1F8C020816889687F
:1028E000096AC161704791F83400022803D00728B3
:1028F00003D037A002E037A000E038A0C1F8C00044
:10290000704730B58A68002592F8374002891AB1BD
:10291000521C028102680BE0012202814D600D60B1
:10292000016065E0936893F83730A34203D852689A
:10293000002AF7D158E032B113682BB1C1E9003257
:102940005960116030BD4FE054E000005800002095
:1029500018730008147300081073000875432F4F94
:10296000532D4949492049646C65205461736B00BB
:102970001C5E0020B05F00205C0000205D00002095
:10298000A4000020DC000020E00000208A000020DD
:102990008B0000208C000020980000209C0000206C
:1029A000A00000203C730008387300083C000020A1
:1029B0004000002044000020480000204C0000207F
:1029C0005000002054000020BA000020B000002079
:1029D000200000005461736B205100005461736B40
:1029E0002053656D000000004D6042680A60516030
:1029F0004160A7E71160C1E900520160A2E710B58C
:102A0000C2870024234601630EE04B6041F8103B6F
:102A1000641C41F8103BA4B241F80C3C21F8083C7E
:102A200041F8043C41F8180C9442EED310BD70B547
:102A3000044690F83700F84900EB400001EB8001B4
:102A4000D4E90320002540B10B895B1E0B81C260D5
:102A500092B110612561E56070BD2AB10889401E00
:102A6000088115610A60F5E70D810D604D6094F8ED
:102A7000370001F090FCEDE74860EBE738B504461D
:102A8000022531B16B46022203F0C1FABDF8000005
:102A900028B184F836502046FFF7C9FF38BD03201F
:102AA00084F83600F7E72DE9F041DC4D07460C4687
:102AB00028680026194680F8342080F83560FFF732
:102AC000DDFF64B1FC6004F1080601223946286884
:102AD000FFF795FF39463046FFF713FF02E02868FD
:102AE000C687066320462968BDE8F041F2E610B5C6
:102AF00002890024012A0BD00A6862B14B6873B1C5
:102B000053601A600289521E02814C600C6010BD35
:102B100004604460F6E74A6814600260F2E75460BB
:102B20004260EFE770B50646C58F046B07E0E068CA
:102B300021460830FFF7DBFF6D1EADB22034002DBB
:102B4000F5D10020F087306370BD10B50B6BC98FD5
:102B500008E0DC68844202D1DA61186110BD491EC8
:102B600089B220330029F4D110BD90F83710AA4A59
:102B700001EB410102EB810100230A8942B1521CA1
:102B80000A810A68C0E903230A6810610860704777
:102B900001220A81C360036108604860704790F8B1
:102BA00037109D4A01EB410102EB810100230A89A4
:102BB0003AB1521C0A81C3604A680261D060486021
:102BC000704701220A81C36003610860F7E710B50E
:102BD000044690F8370001F0D0FB914994F8370093
:102BE00009788842204602D1BDE81040D7E7BDE809
:102BF0001040BAE710B5044603F0FAF894F836101E
:102C0000490703D42046BDE81040E0E710BD2DE998
:102C1000F041064691F8360000270C4615464FF065
:102C20000108082835D2DFE800F0343404043434D5
:102C30001A1A94F83400032803D121463046FFF7CE
:102C400084FFE765A4F86070256416B12046FFF79D
:102C500069FF2046FFF7CEFF84F8367015E094F840
:102C60003400032803D121463046FFF76EFFE765A5
:102C7000A4F86070256416B12046FFF753FF204684
:102C800003F0B6F8042084F8360084F8358084F820
:102C90003470BDE8F08163A2C1F8C020816811B131
:102CA0008968096A00E05FA1C161704770B580F86A
:102CB0003710C58F046B0FE0E668308A08360128AC
:102CC00007D921463046FFF712FF21463046FFF76D
:102CD00018FE6D1EADB22034002DEDD170BD002167
:102CE00001604160018170470289521C02810268C3
:102CF0004A6000220A60026802B111600160028924
:102D0000012A00D14160704710B50B6BC98F08E0F4
:102D1000DC68844202D1DA61186110BD491E89B2B3
:102D200020330029F4D110BD2DE9F0410C4691F873
:102D300036100025022617460829AAD2DFE801F03E
:102D4000323204043232191994F83410032903D1B1
:102D50003A462146FFF7D8FFE565A4F860502046C3
:102D60002764FFF7DFFE2046FFF744FF84F8365064
:102D700014E094F83410032903D13A462146FFF7B2
:102D8000C3FFE565A4F860502046276403F030F8DF
:102D90002046FFF7C7FE042084F8360084F835602B
:102DA00084F8345075E770B50C6B049DC98F0AE048
:102DB000E668864204D1C4E904022383E56170BD5C
:102DC000491E89B220340029F2D170BDF8B50C46F5
:102DD000054691F8361000260698082944D2DFE807
:102DE00001F0434304044343292994F83410032990
:102DF0001AD0E265A4F86030206435B12046FFF7B0
:102E000091FE21462846FFF746FF2046FFF7F2FED7
:102E100084F8366024E00000B05F0020DC00002071
:102E20008A00002020000000009021462846FFF77D
:102E3000BAFFE2E794F83410032916D0E265A4F84B
:102E400060302064204602F0D3FF35B12046FFF702
:102E500069FE21462846FFF71EFF042084F836004D
:102E600084F8356084F83460F8BD00902146284627
:102E7000FFF799FFE6E710B50189002914D0012971
:102E800012D00024022907D0D0E90013CA681461C7
:102E9000C1E90343D96005E0D0E90012C1E903426A
:102EA000C2E90314C0E9002110BD10B5FEF77CFB98
:102EB0000A490446002008700A480949016051F88F
:102EC000900F401C086008490868401C086004F026
:102ED00004F92046BDE81040FEF76ABB8B000020D5
:102EE000E05E0020E0000020B000002070470000FD
:102EF0000023FF4AFDA14361C161116819B18161DD
:102F00004861106070478361FBE72DE9F04104469A
:102F1000F84890460F4600781D4610B142F6E16031
:102F200025E014B3FEF740FBF34E3178491C3170B5
:102F3000FEF73EFBF148C4E900070027C4E9088713
:102F400004F10800FFF7CBFE2046FFF7D1FFEC4964
:102F50000888401C0880FEF727FB3178491E317035
:102F6000FEF726FB2F80BDE8F08145F6C3501880A0
:102F7000F9E7E44902C0E4A102C000218161FFF742
:102F8000AEBED0E9052100232AB151B191614A6159
:102F9000836143617047D64A116001B14B6183611F
:102FA00070479361F5E72DE9F05F8046D1481446FC
:102FB0008946007810B143F2C92013E0B8F1000F40
:102FC00006D0080007D0012905D045F6256009E0A4
:102FD00045F6C35006E0C949D8F80000884205D03C
:102FE00045F6C45010800020BDE8F09FFEF7DCFAE3
:102FF000C14F3978491C3970FEF7DAFAB8F8105029
:103000005FEA0900DFF8F8B2DFF8049308F1080678
:10301000AA460AD0012842D0FEF7C6FA3978491EDE
:1030200011F0FF0139705DD064E05FEA0A0008D05A
:10303000FEF7BAFA3978491E11F0FF0139701FD036
:1030400026E04046FFF79DFFBBF800104046491EB2
:10305000ABF80010FFF78DFFFEF7A6FA3978491E8E
:1030600011F0FF01397007D1B9F8001021B1FEF756
:103070009FFAFFF71AFF01E0FEF79AFA00200BE033
:10308000B9F8001021B1FEF793FAFFF70EFF01E047
:10309000FEF78EFA47F25F1020805046A4E7FEF755
:1030A00087F9814607E030684A4681684046FFF765
:1030B0003BFE6D1EADB2002DF5D14046FFF761FF1E
:1030C000BBF800104046491EABF80010FFF751FF57
:1030D000FEF76AFA3978491E3970FEF769FAFFF788
:1030E00039FBCBE7B9F8001021B1FEF761FAFFF721
:1030F000DCFE01E0FEF75CFA45F62560CCE730B473
:10310000844C029D246844F8802F00222381626051
:103110002B4630BC0122FFF7C6BC2DE9FF4F054608
:103120008BB07448DDE9186400781F46894610B1F9
:1031300046F2AE1007E1ADB148F20101781A8F42B4
:1031400029D019DC40F20111A7F201108F4222D0E0
:103150000BDC012F1FD0022F1DD0042F1BD0082FF6
:1031600016D118E045F6C350EDE0012813D003282E
:1031700011D007280CD10EE0B0F5807F0BD0F4DD24
:10318000A0F58070013806D0022804D0062802D0AD
:1031900045F62560D7E059492868884202D045F6AF
:1031A000C450D0E0F80501D5012000E000208046A1
:1031B0004FF0000B0EB1C6F800B007F00F010991F7
:1031C000FEF7F2F909994C4A4FF0010E012934D06B
:1031D000022938D0042902D008296ED123E0296AB7
:1031E00001EA090ACA4524D011E021EA0A0135E0C2
:1031F000484A1268C2F884A00EB1696A3160FEF7CD
:10320000D7F9A4F800B050460FB0BDE8F08F3904EC
:1032100026D5FEF7CDF946F2B01094E0FEF7C8F9D6
:1032200046F663508FE0296A01EA09035FEA030A60
:10323000EDD0B8F1000FDBD0D7E7296A29EA010AFF
:10324000CA4506D0E3E7296A29EA01035FEA030ACF
:10325000DDD0B8F1000FCBD041EA0A012962C7E7FF
:1032600011780029DAD1924682F800E0FEF7A0F941
:103270000D9800903B464A46294601A8FFF73FFFBC
:10328000FEF792F99AF80010491E8AF80010FEF72E
:103290008FF9FFF75FFAFEF787F91E4B1A6892F86D
:1032A000351059B1012937D0022945D003293BD027
:1032B000FEF77EF946F62E6045E014E00EB1116C83
:1032C0003160A4F800B019685F46B8F1000FD1F87A
:1032D000846041D0099901293BD0022939D00429C1
:1032E00034D0082932D0FEF763F951E720000000FE
:1032F000740000205C000020A4000020464C4147E0
:10330000780000204E4F4E453F464C41470000009C
:1033100068000020DC0000200EB1116C3160FEF767
:1033200047F946F2A9100EE00EB1C6F800B0FEF75C
:103330003FF947F2D92006E00EB1116C3160FEF77B
:1033400037F945F6C250208000205DE7296AB14375
:1033500001E0296A31432962FEF72AF927803046C5
:1033600052E72DE9F05F8046B4480F4614460078D6
:1033700010B146F2AA1012E0B8F1000F0DD04FF4D0
:10338000807A77B157450CD0B7F5004F09D0B7F523
:10339000014F06D045F6256001E045F6C350108088
:1033A00021E0A749D8F80000884202D045F6C45071
:1033B000F5E7FEF7F9F8B8F8101008F1080569B15B
:1033C000DFF8809299F80020521C89F80020FEF75F
:1033D000EFF80026FDF7ECFF834610E0FEF7E8F873
:1033E00046F2AB1020800020FEE528685A4681682E
:1033F0004046FFF70CFC761CB6B2574502D128892F
:103400000028F2D1FEF7D0F899F80020521E89F872
:103410000020FEF7CDF8380401D4FFF79BF9002017
:1034200020803046E0E570B504468448007820B13D
:1034300046F2AE102080002070BDFEF7B5F882493C
:103440000968D1F88450FEF7B3F8002020802846A0
:1034500070BD70B50025C0F8841080F8355080F834
:1034600034500446026490F8360008280ED2DFE893
:1034700000F00D0D04040D0D0A0A2046FFF7BAFBFB
:1034800084F8365002E0042084F836002046BDE877
:103490007040FFF747BB2DE9F0479A4690460D462E
:1034A0000446089EFEF780F801465FEA080022D035
:1034B000012807D0B0F5004F1DD06FF4004218EB83
:1034C000020F12D1206AA843C4E9080A208A04F135
:1034D00008054FF0000988B15A4F3878401C387001
:1034E0000846FEF765F82D6841E00846FEF760F8EB
:1034F00045F625605FE0206A2843E5E70846FEF7C9
:1035000057F8A6F80090206ABDE8F08790F8881078
:103510006D6801F00F01012918D002291ED004297D
:103520000AD008290DD0FEF73FF83978491E11F06E
:10353000FF01397033D03AE0216AD0F88020114081
:1035400009E0216AD0F8802011400BE0D0F880100B
:10355000236A0A4699438A4205D007E0D0F88010D2
:10356000226A914311B15246FFF773FF15B1A86863
:103570000028CBD1FEF718F83978491E3970FEF7CC
:1035800017F85FEA084001D4FFF7E4F8FEF70CF8FB
:10359000246AFEF70DF8A6F800902046B4E72B4900
:1035A000098821B1FEF704F8FFF77FFC01E0FDF781
:1035B000FFFF43F6FF2030800020A5E72DE9FF4103
:1035C0001546884606001C460DD07DB1012D0DD054
:1035D000B5F5004F0AD06FF40040C54206D045F65D
:1035E0002560188019E045F6C350FAE7144F30689B
:1035F000B84202D045F6C450F3E7FDF7D9FE0346C2
:103600000E48007860B1CDE90234CDE90085002391
:103610001A463146384600F01FF8002004B0A2E4F4
:103620002A46414630460094FFF735FFF6E7084A40
:1036300000211160074A1180018070475C00002062
:10364000464C4147A4000020DC0000206800002018
:1036500074000020780000202DE9F05F1E46DDE9AF
:103660000AAB90460F4681460D9CFDF79DFF9A4997
:103670009A4A05460888128890422BD2401C80B294
:10368000088097490A88824200D20880954A1068CB
:10369000C0F80090C0E902780682C0F814A0A0F833
:1036A00018B00C99C161406810608F4801210181F8
:1036B0008E4901604160002000F05FFE8C48007878
:1036C00008B18C490870002020802846BDE8F05FD2
:1036D000FDF76EBF88480188491C018044F25360A1
:1036E000F2E73EB58548864A02AB006801688C1A4D
:1036F000914245D015DC834A89182DD0824A891819
:1037000022D0824A891832D0814AD14208D1C16977
:10371000CDE90013038B028AC168806801F071FF54
:103720003EBD7C4961181DD07B4A891823D07B4A55
:10373000D142F5D1C169CDE90013038B028AC1687A
:10374000806801F083F83EBD0093028BC369416934
:103750008068FFF7A0FE3EBD018BC269806801F062
:1037600008FB3EBD8068194602F035F83EBD018B6E
:10377000C269806817E08068194602F0A2FA3EBD6F
:10378000C2690021664802F089F966490868401E4E
:103790000860F4D1644800680860FDF709FE02463D
:1037A00002AB0021614802F079F93EBD604F4A4CFE
:1037B0000025DFF84881FDF7F7FE06462088E8B1CE
:1037C0003046FDF7F5FEFDF7F3FD0646FFF789FFEE
:1037D000FDF7EEFD3968801B814200D23860FDF7AD
:1037E000E3FED8F800205268C8F800202188491E5E
:1037F0002180FDF7DDFE002DDDD0D9E73A4900201C
:1038000008810860486000F0C6FD3046FDF7D0FE34
:10381000FEF7A0FFCCE7F0B53749464D89B000244C
:103820000C80296831B12D4E3188022905D244F22D
:10383000546135E044F2526132E03D4900233E4F8D
:103840000C60296801F1200210E041F8087B5B1C44
:1038500041F8084B9BB241F8044C21F8104B41F859
:103860000C4C21F8084C41F81C2C2032B6F800C052
:103870006345EAD32A6841F81C2C1A490A601F499B
:103880000A6015492D4A0C8015490C80116851B108
:103890002B492C4D0B682D68AB4207D244F2566180
:1038A000018009B0F0BD44F25561F9E703230594A6
:1038B0000694CDE907300868234912680023096897
:1038C000CDE903040094CDE90121AFF21F121FA13D
:1038D000064801F004FCE4E76800002006730008D5
:1038E0006A00002060000020B05F0020E05E002041
:1038F0008A0000208C0000206C0000206400002062
:103900005449434BADBAB2BE0DF90BFAF2F8F7FFCA
:103910000006F6FF00F7FDF700FFEFFF03FE0FFEC6
:10392000B0620020D8000020D40000207463002082
:1039300070000020207300084E4F4E452873000889
:10394000307300084C7300082C73000875432F4F28
:10395000532D4949492049535220517565756520B9
:103960005461736B00000000574B0022826119689C
:1039700019B1C161886118607047C261FBE72DE928
:10398000F05F04465148DDE90A750078984616460E
:103990008B4610B145F2B96014E045F2BB615EB1EF
:1039A000B8F1020F01D2481C0CE045F2C160042FAF
:1039B00008D316F0030F02D02980BDE8F09F17F05E
:1039C000030F01D02880F8E7A8F101018BB232463D
:1039D000002104E0D0191060491C024689B29942C6
:1039E000F8D34FF0000AC2F800A0FDF7DDFDDFF8C4
:1039F000E09099F80010491C89F80010FDF7D8FDF7
:103A0000344884E84108E660A4F81480A4F81280E1
:103A100027822046FFF7A8FF2F480188491C018014
:103A2000FDF7C2FD99F80010491E89F80010FDF756
:103A3000BFFDA5F800A0C0E770B504000D460ED08C
:103A4000FDF7B2FDA18A71B1E668491E3268E260F5
:103A5000A182FDF7ADFD00202880304670BD45F203
:103A6000BF60088004E0FDF7A3FD45F2C260288036
:103A7000002070BD70B50E46040015460BD06EB127
:103A8000FDF792FDA18A628A91420BD3FDF790FD6A
:103A900045F2BA600FE045F2BF6001E045F2BE605A
:103AA000108070BDE1683160E660A18A491CA18286
:103AB000FDF77EFD0020288070BD034A00211160C3
:103AC000054A1180018070477C0000205C000020C6
:103AD000A40000204D454D208000002010B5491E57
:103AE0008CB2002100F110020B4608E0E0E802234E
:103AF000491C20F8083B89B240F8043C1032A1422E
:103B0000F4D3036043600381C36010BD70B5524DB0
:103B10000446286880B1514E308880B181B228684F
:103B2000FFF7DCFF4E482968016031888180002161
:103B3000C1800181218070BD45F21E7001E045F217
:103B40001D70208070BD10B5428992B14449036850
:103B50000C681C6043680B60CB8844891B1BCB80BE
:103B60008B88448923448B800021418181810160BD
:103B70004160104610BD01810021418181810160B9
:103B800041607047F0B544890025CCB1446827896D
:103B900066680F800AB1E168116021684160B9B1BF
:103BA0004189491E41812E48016821600460818855
:103BB000491C8180C188491EC1801D803046F0BDEE
:103BC0000D8002B1156046F2925018800020F0BDC1
:103BD00005604581E7E7F0B54489DDE905E605893B
:103BE000AC4202D346F293501EE01D4DAF88CFB1D8
:103BF0002C687F1ED4F800C0C5F800C0AF80EF88E5
:103C00007F1CBFB2EF80B5F808C0BC4500D22F8141
:103C10004789002557B1DB060CD403681C6025607A
:103C200004600AE045F21D703080F0BD046001239D
:103C3000446004E043682360446043895B1C438123
:103C400087899BB29F4200D2838161602281C4F840
:103C50000CE03580F0BD00004873000808730008D0
:103C6000A45F00200023FD4AFBA14361C1611168EC
:103C700019B181614861106070478361FBE72DE9EC
:103C8000F0410446F6480F461546007810B142F65A
:103C9000E1602AE03CB3FDF787FCF24E3178491C25
:103CA0003170FDF785FCF048C4E900070027276262
:103CB00084F825704020A76284F8240004F10800ED
:103CC000FFF70DF82046FFF7CDFFE8490888401CB4
:103CD0000880FDF769FC3178491E3170FDF768FCFA
:103CE0002F80BDE8F08145F6C3501080F9E7E04928
:103CF00002C0E0A102C00021816141770162402140
:103D00000177FEF7ECBFD0E9052100232AB151B1BC
:103D100091614A61836143617047D04A116001B18A
:103D20004B61836170479361F5E72DE9F05F0746CA
:103D3000CB480E461446007810B143F2C92008E083
:103D40002FB146B1012E06D045F6256001E045F6BB
:103D5000C3501080A4E0C4493868884202D045F6B8
:103D6000C450F6E7FDF720FCDFF8F89299F8002040
:103D7000521C89F80020FDF71BFC3D8ADFF8FCA2ED
:103D800007F10808AB4666B1012E48D0FDF70CFCE0
:103D900099F80010491E11F0FF0189F8001079D040
:103DA000A9E0BBF1000F0AD0FDF7FEFB99F8001067
:103DB000491E11F0FF0189F8001020D027E0384695
:103DC000FFF7A1FFA9480188491E01803846FFF787
:103DD0008EFFFDF7E9FB99F80010491E11F0FF0175
:103DE00089F8001007D1BAF8001021B1FDF7E0FB07
:103DF000FFF75BF801E0FDF7DBFB00200BE0BAF812
:103E0000001021B1FDF7D4FBFFF74FF801E0FDF7FB
:103E1000CFFB47F25F1020805846BDE8F09F3E6A16
:103E200016B396F8370097F8241088421CD096F8FD
:103E3000360008281CD2DFE800F004111414111118
:103E400014143046FEF7F3FD97F8240086F8370087
:103E500000F093FA3046FEF7A2FE05E086F8371030
:103E600002E03046FEF722FFFDF7A2FA064622E006
:103E7000FDF79AFB99F80010491E11F0FF0189F82F
:103E8000001008D1BAF8001029B1FDF791FBFFF737
:103E90000CF802E027E0FDF78BFB46F62D60208052
:103EA0000020BAE7D8F80000324681683846FEF7AD
:103EB0003BFF6D1EADB2002DF4D13846FFF723FF56
:103EC0006A480188491E01803846FFF710FFFDF758
:103ED0006BFB99F80020521E89F80020FDF768FB63
:103EE000FEF738FC89E7BAF8001021B1FDF760FB56
:103EF000FEF7DBFF01E0FDF75BFB45F625608AE797
:103F00002DE9F04F0646564889B01C460078129DB0
:103F100017468B4610B146F2AE10C9E036B147B134
:103F2000B7F5004F05D045F62560C1E045F6C35012
:103F3000BEE04D493068884202D045F6C450B7E033
:103F40004FF000080CB1C4F80080FDF72DFB96F887
:103F500025104B4B012281B19A46D6F820C01B6830
:103F60009C451CD1491C86F825100CB1B16A216012
:103F7000FDF71EFB45F282709AE01968316291F8F4
:103F8000371086F8241086F825200CB1B16A21601C
:103F9000FDF70EFBA5F8008009B0BDE8F08F3904ED
:103FA00004D5FDF705FB46F2B01081E02D490B78F2
:103FB00023B1FDF7FDFA46F6635079E089460A70B1
:103FC000FDF7F6FA376ADAF8000097F8372090F82C
:103FD00037108A421ED997F83600082852D2DFE8F7
:103FE00000F004131616131316163846FEF71FFDBD
:103FF000DAF8000090F8370087F8370000F0BDF9D4
:104000003846FEF7B2FD05E087F8371002E0384683
:10401000FEF74CFE5B46042231466846FEF743FD40
:10402000FDF7C2FA99F80020521E89F80020FDF72A
:10403000BFFAFEF78FFBFDF7B7FADAF8002092F827
:10404000351041B101293BD0022948D003293DD088
:1040500046F62E613FE02DE02000000084000020A5
:104060005C000020A40000204D555458880000201A
:104070004E4F4E453F4D55544558000068000020B6
:10408000DC000020FDF790FA99F80010491E11F0AD
:10409000FF0189F8001007D1A349098821B1FDF774
:1040A00087FAFEF702FF01E0FDF782FA46F62D607F
:1040B000288071E70CB1116C2160A5F800800BE03D
:1040C0000CB1116C216046F2A91104E00CB1C4F8E6
:1040D000008047F2D9212980FDF76AFA5CE70CB12C
:1040E000116C216045F6C251F5E72DE9F05F80467D
:1040F0008E480F461446007810B146F2AA1012E01E
:10410000B8F1000F0DD04FF4807A77B157450CD03D
:10411000B7F5004F09D0B7F5014F06D045F6256039
:1041200001E045F6C350108021E08149D8F8000035
:10413000884202D045F6C450F5E7FDF735FAB8F8E5
:10414000101008F1080569B1DFF8E89199F800202E
:10415000521C89F80020FDF72BFA0026FDF728F9FC
:10416000834610E0FDF724FA46F2AB1020800020D1
:1041700053E628685A4681684046FEF748FD761C9B
:10418000B6B2574502D128890028F2D1FDF70CFAC2
:1041900099F80020521E89F80020FDF709FA38042A
:1041A00001D4FEF7D7FA00202080304635E62DE90D
:1041B000F84F04465D4815468A46007810B146F22D
:1041C0000E2011E03CB1080008D0B1F5004F05D039
:1041D00045F6256008E045F6C35005E054492068DF
:1041E000884204D045F6C4501080BDE8F88FFDF732
:1041F000DBF9DFF84491226AD9F800108A4204D032
:10420000FDF7D6F945F281706CE0DFF8288198F867
:104210000020521C88F80020FDF7CAF9FDF7C8F805
:104220000646A06294F82500DFF8FCB0401E10F0AE
:10423000FF0084F8250016D0FDF7B6F998F80010B5
:10424000491E11F0FF0188F8001007D1BBF80010DB
:1042500021B1FDF7ADF9FEF728FE01E0FDF7A8F961
:1042600045F283703EE0208A04F10807E0B3D9F8F4
:10427000000094F8243090F837209A4213D0FEF7CB
:10428000D6FBD9F8001094F8240081F8370000F02C
:1042900074F8D9F80000FEF782FCD9F8000027492D
:1042A00090F837000870386800231A468168216248
:1042B00091F8370084F82400012084F82500204676
:1042C0000096FEF783FDFDF76FF998F80020521E67
:1042D00088F80020FDF76CF95FEA0A4001D4FEF788
:1042E00039FA0020288080E7FFE700262662FDF7E4
:1042F0005BF998F80010491E11F0FF0188F80010D2
:1043000007D1BBF8001021B1FDF752F9FEF7CDFD42
:1043100001E0FDF74DF92E8067E7094A00211160A1
:10432000084A118001807047680000205C0000206E
:104330004D555458A4000020DC0000208A000020C5
:10434000840000208800002000201A4A014642F81C
:104350002010401C0228FAD3704710B500241548DD
:1043600002E02034E4B2001D01680029F9D00846BB
:10437000FDF725F92044C0B210BD00F01F0241092D
:104380000120C2F11F0290400A4A52F82130034333
:1043900042F82130704700F01F0241090120C2F1AC
:1043A0001F029040034A52F82130834342F82130E3
:1043B00070470000340000200023F84AF6A1436152
:1043C000C161116819B181614861106070478361F2
:1043D000FBE72DE9F0410446F1481746884600788E
:1043E0001D4610B142F6E1602CE034B347B3FDF74F
:1043F000DBF8EC4E3178491C3170FDF7D9F8EA480A
:10440000C4E90008394604F12000FFF7B4FB04F1C9
:104410000800FEF764FC2046FFF7CEFFE34908885A
:10442000401C0880FDF7C0F83178491E3170FDF757
:10443000BFF800202880BDE8F08145F6C35001E0B8
:1044400046F294501880F6E770B5044620300546D1
:10445000FFF779FBD6482060D6A06060002128468F
:10446000FFF789FB04F10800BDE87040FEF737BC98
:10447000D0E9052100232AB151B191614A618361DC
:1044800043617047C54A116001B14B618361704758
:104490009361F5E72DE9F05F0746C1481446894668
:1044A000007810B143F2C9200BE047B1080045F68F
:1044B000256B0AD0012908D0A2F800B002E045F629
:1044C000C35010800020BDE8F09FB749386888428B
:1044D00002D045F6C450F4E7FDF766F882463D8AFF
:1044E0005FEA0900DFF8C49207F10806A84608D081
:1044F00001281FD05046FDF75BF8A4F800B04046F5
:10450000E1E75FEA080006D05046FDF751F847F2B0
:104510005F102080F3E73846FFF7AAFFB9F80010D4
:104520003846491EA9F80010FFF78EFF5046FDF7E8
:104530003FF82DE0DFF86CB250469BF80010491CA4
:104540008BF80010FDF734F8FCF732FF824607E0E5
:104550003068524681683846FEF7E6FB6D1EADB204
:10456000002DF5D13846FFF783FFB9F80010384623
:10457000491EA9F80010FFF767FFFDF715F89BF833
:104580000020521E8BF80020FDF712F8FEF7E2F82B
:104590000020BEE770B5054681480C46007810B192
:1045A0004FF46C500BE045B17F492868884208D031
:1045B00045F6C4502080002070BD45F6C3500880E9
:1045C000F9E7FCF7F1FF774E3178491C3170FCF7C1
:1045D000EFFF05F12000FFF7B6FA0546FCF7E4FF10
:1045E0003178491E11F0FF01317007D172490988F5
:1045F00021B1FCF7DDFFFEF758FC01E0FCF7D8FF26
:1046000000202080284670BD2DE9F04F074689B074
:104610006348DDE9125400781E4691468B4610B17E
:1046200046F2AE1040E047B156B110000BD0B2F5E3
:10463000004F08D045F6256036E045F6C35033E01C
:1046400046F2D52030E058493868884202D045F615
:10465000C45029E04FF000080DB1C5F80080FCF708
:10466000A3FF009023462A46314607F12000FFF7BA
:1046700089FA8246208840B15FEA09400CD500984B
:10468000FCF796FF46F2B0100EE00098FCF790FFA2
:10469000504609B0BDE8F08F4248017839B1009822
:1046A000FCF786FF46F6635020800020F1E7814644
:1046B000012089F800000098FCF77AFF5B4605228C
:1046C000394601A8FEF7EFF9FCF76EFF99F80010E4
:1046D000491E89F80010FCF76BFFFEF73BF8FCF76A
:1046E00063FF364A0346116891F8350060B101282E
:1046F00015D002282AD003284FF0000719D0A6F8B9
:10470000008046F62E601BE0B1F86000CF6D30806F
:1047100015B11068006C2860A4F8008011E0002733
:10472000A6F8008015B11068006C286046F2A91048
:1047300006E04046A6F8008005B1286047F2D9207F
:1047400020801846FCF734FF3846A2E70027A6F879
:10475000008015B11068006C286045F6C250EFE784
:104760002DE9F05F80460E480F461446007810B1E0
:1047700046F2AA1026E0B8F1000F21D04FF4807A5B
:1047800017B3574520D0B7F5004F1DD0B7F5014FEF
:104790001AD045F6256015E02000000090000020AA
:1047A0005C000020A40000205155455594000020D5
:1047B0004E4F4E453F51000068000020DC000020B5
:1047C00045F6C350108021E07949D8F800008842AE
:1047D00002D045F6C450F5E7FCF7E6FEB8F8101035
:1047E00008F1080569B1DFF8CC9199F80020521C56
:1047F00089F80020FCF7DCFE0026FCF7D9FD834693
:1048000010E0FCF7D5FE46F2AB10208000205AE6FF
:1048100028685A4681684046FEF7F9F9761CB6B218
:10482000574502D128890028F2D1FCF7BDFE99F83E
:104830000020521E89F80020FCF7BAFE380401D48B
:10484000FDF788FF0020208030463CE62DE9FF4F31
:1048500083B01E46DDE9107A93468146FCF7A4FE3C
:10486000DFF8508198F80020521C88F80020FCF7EF
:104870009FFEB9F8104009F1080024B1B10500D439
:10488000012405682FE0F00601D4002300E0102386
:10489000CDE9007A5A4609F120000499FFF79BF907
:1048A000FCF782FE98F80010491E11F0FF0188F80D
:1048B000001009D14049098831B1FCF779FE07B0F1
:1048C000BDE8F04FFEF7F1BA07B0BDE8F04FFCF7D6
:1048D0006FBEA9686D685B4600974846049AFEF76C
:1048E00075FA641EA4B2002CF3D1FCF75DFE98F8B3
:1048F0000020521E88F80020FCF75AFE300401D434
:10490000FDF728FF0021AAF8001007B0C2E62DE944
:10491000FF471E460C9C9046894605000ED04FF47A
:104920000070B3F5004F18D00BDCB3B1102B14D0CE
:10493000834212D0B6F5047F0CD10EE045F6C35089
:1049400011E0A6F50043103B07D0B3F5F87F04D083
:10495000834202D045F6256005E0154F2868B8422D
:1049600004D045F6C4502080BDE8FF87FCF720FD49
:104970001249097859B10021CDE90016CDE90204A8
:1049800043464A4629463846FEF766FEECE7CDE93F
:1049900000043346424649462846FFF757FFE3E7FF
:1049A000074A00211160074A11800180704700000A
:1049B00051554555A4000020680000205C000020EF
:1049C00090000020940000200023F94AF7A14361E1
:1049D000C161116819B181614861106070478361DC
:1049E000FBE72DE9F0410446F24817468846007877
:1049F0001D4610B142F6E16025E014B3FCF7D4FD8A
:104A0000ED4E3178491C3170FCF7D2FD276200274A
:104A1000EA486762C4E9000804F10800FEF75FF99C
:104A20002046FFF7D1FFE6490888401C0880FCF7C4
:104A3000BBFD3178491E3170FCF7BAFD2F80BDE80F
:104A4000F08145F6C3501880F9E7DE4940F8201B95
:104A5000002102C040F82019DBA102C0FEF73FB9D7
:104A6000D0E9052100232AB151B191614A618361E6
:104A700043617047CE4A116001B14B618361704759
:104A80009361F5E72DE9F05F0746CA481446894669
:104A9000007810B143F2C9200BE047B1080045F699
:104AA000256B0AD0012908D0A2F800B002E045F633
:104AB000C35010800020BDE8F09FC049386888428C
:104AC00002D045F6C450F4E7FCF76EFD82463D8AFD
:104AD0005FEA0900DFF8E89207F10806A84608D067
:104AE00001281FD05046FCF763FDA4F800B04046F3
:104AF000E1E75FEA080006D05046FCF759FD47F2AF
:104B00005F102080F3E73846FFF7AAFFB9F80010DE
:104B10003846491EA9F80010FFF797FF5046FCF7EA
:104B200047FD2DE0DFF890B250469BF80010491C7D
:104B30008BF80010FCF73CFDFCF73AFC824607E0DE
:104B40003068524681683846FEF7EEF86D1EADB209
:104B5000002DF5D13846FFF783FFB9F8001038462D
:104B6000491EA9F80010FFF770FFFCF71DFD9BF828
:104B70000020521E8BF80020FCF71AFDFDF7EAFD1D
:104B80000020BEE72DE9F04706468A4888B01C465B
:104B90000078109D91468A4610B146F2AE100AE0A8
:104BA0003EB1100009D0B2F5004F06D045F62560A1
:104BB00001E045F6C35028805BE0804831688142BF
:104BC00002D045F6C450F6E7002704B12760FCF791
:104BD000EBFCD6F82080B8F1000F0BD0A8F101084B
:104BE000C6F820800CB1716A2160346AFCF7E0FCE1
:104BF0002F8054E05FEA094108D5FCF7D9FC46F262
:104C0000B0102880404608B0BDE8F0876A490A78AD
:104C100022B1FCF7CDFC46F66350CCE78846012173
:104C200088F80010FCF7C4FC53460622314668465B
:104C3000FDF739FFFCF7B8FC98F80010491E88F81A
:104C40000010FCF7B5FCFDF785FDFCF7ADFC024656
:104C50005F48016891F8350068B1012810D002283A
:104C60001FD0032812D046F62E6028801046FCF78D
:104C70009FFC0020C7E70CB1086C20602F800AE081
:104C80000CB1086C206046F2A91003E004B1276063
:104C900047F2D92028801046346AFCF789FC204668
:104CA000B1E70CB1086C206045F6C250F2E72DE97F
:104CB000F05F80463F480F461446007810B146F238
:104CC000AA1012E0B8F1000F0DD04FF4807A77B13E
:104CD00057450CD0B7F5004F09D0B7F5014F06D0B6
:104CE00045F6256001E045F6C350108021E03349C8
:104CF000D8F80000884202D045F6C450F5E7FCF72A
:104D000053FCB8F8101008F1080569B1DFF8A89055
:104D100099F80020521C89F80020FCF749FC002675
:104D2000FCF746FB834610E0FCF742FC46F2AB1072
:104D300020800020BFE628685A4681684046FDF77B
:104D400066FF761CB6B2574502D128890028F2D1F9
:104D5000FCF72AFC99F80020521E89F80020FCF785
:104D600027FC380401D4FDF7F5FC002020803046F4
:104D7000A1E62DE9F84F1F46904689460646FCF706
:104D800013FC318A06F108054FF0000B69B1DFF81A
:104D900028A09AF80020521C8AF80020FCF708FC92
:104DA0005FEA895027D52C8926E013E02000000017
:104DB000A80000205C000020A400002053454D41C5
:104DC000AC0000204E4F4E453F53454D00000000C3
:104DD000DC000020346A611C05D0641CC6E9084868
:104DE000FCF7E6FB26E0FCF7E3FB46F6C55038800F
:104DF0000020BDE8F88F01242D680AE0A9686D68DD
:104E000000231A463046CDF80080FDF7DFFF641E10
:104E1000A4B2002CF2D1346AFCF7C6FB9AF8002049
:104E2000521E8AF80020FCF7C3FB5FEA094001D458
:104E3000FDF790FCA7F800B02046DAE72DE9FF4126
:104E40000C46060015460DD07CB1B4F5007F0CD0A1
:104E5000B4F5004F09D0B4F5024F06D045F62560F1
:104E600010801AE045F6C350FAE7284F3068B84280
:104E700002D045F6C450F3E7FCF79AFA02462448FC
:104E8000007868B1002003950090CDE90142034607
:104E9000024631463846FEF7DFFB002004B0CEE57F
:104EA00004B02B4621463046BDE8F04161E770B5BD
:104EB000044617480E461546007810B146F6C6500F
:104EC00006E03CB111492068884206D045F6C4503E
:104ED000108070BD45F6C350FAE700202880FCF72B
:104EE00063FB216A41B9218A31B147F25F11298000
:104EF000BDE87040FCF75CBB2662F9E7054A00217B
:104F00001160054A118001807047000053454D41F2
:104F10005C000020A8000020AC0000202DE9F0413A
:104F20000446FB480D461646007810B147F249107A
:104F300004E046F273200DB13F2D02D31080BDE88E
:104F4000F081ACB10027FCF72FFBDFF8C88398F89D
:104F50000020521C88F80020FCF72AFB94F8360049
:104F600008283CD2DFE800F00C261C1C26261C1C5E
:104F7000FCF71AFBE8490C68FCF71AFB0127E2E78B
:104F80002046FDF754FD84F837502846FFF7F5F921
:104F9000204617B1FDF7E9FD13E0FDF700FE10E034
:104FA00094F8340008280CD2DFE800F00B04040762
:104FB0000707070484F8375003E029462046FDF729
:104FC00075FEFCF7F1FA98F80020521E88F80020D0
:104FD000FCF7EEFAFDF7BEFB00203080AFE7FCF7F0
:104FE000E3FA98F80010491E11F0FF0188F800104C
:104FF00007D1CA49098821B1FCF7DAFAFDF755FF54
:1050000001E0FCF7D5FA46F62D60E6E7C44B002236
:10501000C0F8B820196829B1C0F8BC10C1F8B800B0
:1050200018607047C0F8BC20FAE770B5002505602D
:1050300085604560C5600561456104468561B9A02C
:10504000C4E907506562A562E5622564E565A4F8D8
:105050006050294604F16400FEF78DFD6567A56781
:10506000C4F88050A4F888500020C4F8845004EBA1
:105070008001401CCD6710F0FF00F8D06564C4F8D3
:10508000A450C4F8A850A56384F88A50C4F8B0505E
:10509000C4F8AC50A5874FF00040C4E9120525655F
:1050A0006565A565A4F88C50A4F88E50C4F890509E
:1050B000C4F894503434FCF77BF9C4E91905C4F8FA
:1050C000805004F8015B402004F8015B04F8015BA8
:1050D00004F8810B95A020C4C4E9005070BD2DE9EF
:1050E000FF4F83B004468A48DDE91785DDE9109754
:1050F0000078139E934610B147F24A102BE054B14A
:10510000BBF1000F0AD067B18948006886420BD214
:1051100046F630601FE047F2AD101CE047F24F103A
:1051200019E046F62F6016E01298B04202D346F618
:10513000316010E046F27320B9F1400F0BD25FEA04
:10514000090103D0B9F13F0F02D008E0794900E02E
:1051500079498C4203D0288007B0BDE8F08F204603
:10516000FFF763FF4FF0000AA5F800A05FEAC870E0
:105170000AD05FEA887007D538460021524601E020
:1051800004C0491CB142FBD31298CDE9006807EB7B
:1051900080052B463A465846069901F0B0FCC4F803
:1051A00028B00699E1620499216284F83790A560DD
:1051B00020601598606516986762A6636060A4F821
:1051C0003C800020514604EB8002401CD16710F067
:1051D000FF00F8D004F164001499FEF7CCFC2046DF
:1051E00001F07BFCFCF7E0F94A4D2978491C297055
:1051F000FCF7DEF994F83700FFF7BFF82046FDF71B
:10520000CEFC2046FFF702FF4C490888401C08806E
:105210004B480078012816D0FCF7C6F92978491EBA
:1052200011F0FF01297009D13C49098831B1FCF71F
:10523000BFF907B0BDE8F04FFDF737BE07B0BDE8D6
:10524000F04FFCF7B5B9FCF7AFF92978491E297082
:10525000FCF7AEF907B0BDE8F04FFDF77BBAD0E937
:105260002E2100234AB181B1C2F8BC10C1F8B82088
:10527000C0F8BC30C0F8B8307047294A116009B195
:10528000C1F8B830C0F8BC307047C2F8BC30F1E7A4
:1052900070B504461E480D46007810B147F24E1016
:1052A0000AE02548844202D147F24C1004E021482C
:1052B000844203D147F24D10088070BD2CB9FCF731
:1052C00073F915490C68FCF773F9FCF76DF9114E89
:1052D0003178491C3170FCF76BF994F836000828D6
:1052E0005AD2DFE800F004080C0C38080C0C2046F9
:1052F000FDF79DFB2FE0204600F07AFD2BE02046D5
:1053000000F076FD94F83400072824D21AE000005B
:105310005C000020A4000020DC00002068000020C9
:10532000B40000203F5461736B00000020000000B7
:105330004C730008E05E00201C5E0020B8000020D6
:105340005D000020DFE800F0070407040404040007
:105350002046FDF7E7FB04F16400FEF7F4FB20466E
:1053600001F0C1FB2046FFF77AFFFA490888401E8A
:1053700008802046FFF759FEFF2084F83600FCF72E
:1053800013F93178491E3170FCF712F9002028809A
:10539000BDE87040FDF7DEB9FCF706F93178491E2B
:1053A00011F0FF01317007D1EB49098821B1FCF7F9
:1053B000FFF8FDF77AFD01E0FCF7FAF846F62D60FC
:1053C000288070BD70B50446E4480E46007820B1D0
:1053D0004FF46C500880002070BD2CB9FCF7E4F845
:1053E000DF490C68FCF7E4F8FCF7DEF8DD4D2978BE
:1053F000491C2970FCF7DCF804F16400FEF7A3FBFC
:105400000446FCF7D1F82978491E11F0FF012970F4
:1054100007D1D149098821B1FCF7CAF8FDF745FD4C
:1054200001E0FCF7C5F800203080204670BD2DE972
:10543000F84F8346C9480A9D1C46007816460F4619
:1054400010B146F2AE100AE03EB1080009D0B1F545
:10545000004F06D045F6256001E046F2D5202880B1
:105460001CE04FF000090CB1C4F80090FCF79CF868
:10547000DFF8EC8200902B46D8F800002246314637
:105480006430FEF77FFB8246288850B1380419D576
:1054900046F2B01028800098FCF78AF80020BDE89A
:1054A000F88F54B1FBF784FF2168401AD8F8001038
:1054B00048678A6F824200D288670098FCF778F8C4
:1054C0005046ECE7A748017829B10098FCF770F83E
:1054D00046F66350C3E70746012038700098FCF792
:1054E00067F800215B4602220846FDF7DCFAFCF76C
:1054F0005BF83978491E3970FCF75AF8FDF72AF93C
:10550000FCF752F88246D8F8000090F8351091B1B7
:1055100001294FF0000726D0A6F800901CB1D8F85A
:105520000000006C206047F2D92028805046FCF72C
:105530003FF83846B3E7C76DB0F8600030807CB103
:10554000D8F80000006C2060FBF732FF0146D8F865
:105550000000026C891A4167826F8A4200D281671B
:10556000A5F80090E2E74846A6F8009004B1206054
:1055700046F2A910D9E72DE9F041054677480F46D4
:105580001446007810B146F2AA1005E037B1B7F51D
:10559000004F03D045F62560108014E0FCF704F8B6
:1055A0001DB16F4909688D4204D1FCF701F846F23C
:1055B000AC1007E095F83410022906D0FBF7F8FF8D
:1055C00046F2AB1020800020B9E4664E3178491CC9
:1055D0003170FBF7EDFFFBF7EBFE0246294600209A
:1055E000FDF715FBFBF7E0FF3178491E3170FBF743
:1055F000DFFF380401D4FDF7ADF800202080012042
:105600009DE42DE9FC5F9946DDE90C7592468B46D9
:105610000446FBF7C9FF534E3178491C3170FBF744
:10562000C7FF0CB94E4804680020288094F8360063
:10563000DFF8248108283CD2DFE800F004041E1EB5
:1056400004041E1ECDE900754B465246594604F12E
:105650006400FEF7C0FAFBF7A7FF3178491E11F08E
:10566000FF01317021D1B8F80010F1B1FBF7A0FFB4
:10567000BDE8FC5FFDF719BC94F834000228E1D1C5
:1056800053465A46214600200097FDF79FFBFBF743
:105690008BFF3178491E3170FBF78AFF5FEA0940C2
:1056A0001CD4BDE8FC5FFDF755B8BDE8FC5FFBF717
:1056B0007FBFFBF779FF3178491E11F0FF01317090
:1056C00007D1B8F8001021B1FBF772FFFDF7EDFB31
:1056D00001E0FBF76DFF46F62D602880BDE8FC9FDA
:1056E0002DE9FF411C000A9D16460F4680460DD04D
:1056F000102C0BD0B4F5004F08D0A4F500401038A2
:1057000004D045F625602880BDE8FF81FBF750FEF8
:105710001249097859B10021CDE90014CDE90205FB
:1057200033463A4641461048FDF796FFECE7CDE98F
:1057300000052346324639464046FFF762FFE3E75D
:1057400070B51546044689B146F6791010800020E0
:1057500070BD0000B8000020680000205C00002040
:10576000DC000020A4000020544D5347FBF71CFF31
:105770000CB9FD490C68E46FFBF71AFF0020288084
:105780002046E5E710B50446FBF70EFFF7490A7817
:1057900032B145F6DA112180FBF70AFF012010BD76
:1057A00001220A70FBF704FF0020208010BD70B5B5
:1057B0001D461646044619B146F679101880C7E70B
:1057C000FBF7F2FE0CB9E8490C68E667FBF7F0FE60
:1057D00000202880BCE770B50D460446FBF7E4FEC8
:1057E00000262E8094F8361008294AD2DFE801F00E
:1057F000040404040A23333DFBF7DAFE47F2531096
:10580000288024E0DA4D2978491C2970FBF7D0FE66
:1058100094F88A00401E10F0FF0084F88A0004D13A
:1058200084F836602046FDF7E5F9FBF7BDFE2978E0
:10583000491E297009E094F88A10491E11F0FF01F1
:1058400084F88A1001D1012118E0FBF7B1FEBDE810
:105850007040FCF77FBF94F88A10491E11F0FF01D9
:1058600084F88A10F1D1022108E094F88A10491EC8
:1058700011F0FF0184F88A10E7D1032184F8361073
:10588000E3E7FBF795FE46F62D60288060E77FB5DD
:105890000D460446FBF788FE1CB1B34909688C42EB
:1058A00005D1FBF785FE47F2571028807FBDFBF737
:1058B0007FFEB048007858B10020CDE90205009085
:1058C0000346024601902146AB48FDF7C5FE7FBD69
:1058D00004B029462046BDE870407CE72DE9F0473A
:1058E0008246A44814460F4600781D4610B146F281
:1058F000AE1005E037B1B7F5004F03D045F625608F
:10590000188037E0002604B12660FBF74DFEDFF873
:1059100058828146D8F80000416CD1B1491E4746F3
:10592000884641640CB1006C2060FBF741FD39688A
:105930000A6C801AC1F8A400D1F8A820824201D2D2
:10594000C1F8A8004846FBF733FE2E804046BDE86C
:10595000F087380405D54846FBF72AFE46F2B0101A
:1059600007E0834F387838B14846FBF721FE46F60A
:10597000635028800020EAE7012038704846FBF792
:1059800017FE0021534607220846FDF78CF8FBF767
:105990000BFE3978491E3970FBF70AFEFCF7DAFE78
:1059A000FBF702FED8F800108146474691F8350013
:1059B00030B1012816D003281AD046F62E601BE01D
:1059C00074B1086C2060FBF7F3FC39680A6C801A2C
:1059D000C1F8A400D1F8A820824201D2C1F8A800E1
:1059E0002E800AE00CB1086C206046F2A91003E09A
:1059F00004B1266047F2D92028803868446C4846B4
:105A0000FBF7D6FD2046A2E72DE9F04105465948AF
:105A10000E461446007810B146F2AA1005E036B1E1
:105A2000B6F5004F03D045F62560108014E0FBF773
:105A3000BBFD1DB14C4909688D4204D1FBF7B8FD8F
:105A400046F2AC1007E095F83410072906D0FBF7B2
:105A5000AFFD46F2AB1020800020B5E5FBF7A8FDB6
:105A6000FBF7A2FD424F3978491C3970FBF7A0FDC6
:105A7000FBF79EFC024629460020FDF7C8F8FBF71D
:105A800093FD3978491E3970FBF792FD300401D43B
:105A9000FCF760FE00202080012095E52DE9F84FFD
:105AA000984616468A460446FBF77EFD304D297817
:105AB000491C2970FBF77CFD0CB92B4804680020B9
:105AC0002E4F2664A8F8000094F8360046F6C55913
:105AD000082859D2DFE800F02424202024242020A4
