:020000040800F2
:100000006007002031020008390200083B020008A6
:100010003D0200083F020008410200080000000005
:100020000000000000000000000000004302000883
:1000300045020008000000004702000849020008CD
:100040004B0200084B0200084B0200084B0200085C
:100050004B0200084B0200084B0200084B0200084C
:100060004B0200084B020008490600084B0200083A
:100070004B0200084B0200084B0200084B0200082C
:100080004B0200084B0200084B0200084B0200081C
:100090004B0200084B0200084B0200084B0200080C
:1000A0004B0200084B0200084B0200084B020008FC
:1000B0004B020008810900084B0200084B020008AF
:1000C0004B0200084B0200084B0200084B020008DC
:1000D0004B020008710A00084B020008C50A00081C
:1000E0004B0200084B0200084B0200084B020008BC
:1000F0004B0200084B0200084B0200084B020008AC
:100100004B0200084B0200084B0200084B0200089B
:100110004B0200084B0200084B0200084B0200088B
:100120004B0200084B0200084B0200084B0200087B
:100130004B0200084B0200084B0200084B0200086B
:100140004B0200084B0200084B0200084B0200085B
:100150004B0200084B0200084B0200084B0200084B
:100160004B0200084B0200084B0200084B0200083B
:100170004B0200084B0200084B0200084B0200082B
:100180004B0200084B02000800F002F800F041F8B2
:100190000AA090E8000C82448344AAF10107DA45E2
:1001A00001D100F036F8AFF2090EBAE80F0013F0F3
:1001B000010F18BFFB1A43F001031847501000004D
:1001C00070100000103A24BF78C878C1FAD85207DE
:1001D00024BF30C830C144BF04680C6070470000C1
:1001E0000023002400250026103A28BF78C1FBD840
:1001F000520728BF30C148BF0B607047642900F028
:100200007980002070471FB500F0FAFF1FBD10B5C0
:1002100010BD00F035F91146FFF7F5FF00F09EFE26
:1002200000F053F903B4FFF7F2FF03BC00F020FD28
:100230000948804709480047FEE7FEE7FEE7FEE77A
:10024000FEE7FEE7FEE7FEE7FEE7FEE704480549B6
:10025000054A064B7047000025090008890100087F
:100260006001002060070020600300206003002080
:10027000704700000FB4044910B503AA029800F0BB
:10028000D1F810BC5DF814FB280000202DE9F041E6
:100290000E460446002020622046E168884730B3BD
:1002A000252805D0D4E901219047206A401CF2E7B7
:1002B000E168204600278847050018D0A5F14100D5
:1002C000192802D820354FF40067324629462046C7
:1002D0002760FFF793FF40B1012804D0F61D26F0F8
:1002E00007060836D8E7361DD6E72846DAE7206A3B
:1002F000BDE8F0812DE9F04106460024106875291B
:10030000314616A510D0AFF30080002802DA404233
:1003100013A507E031688A0701D512A502E0490755
:1003200004D511A5012401E0AFF3008000210A22C9
:1003300006F1240709E0B0FBF2FCB0FBF2F302FB8C
:100340001C00303078541846491C0028F3D123464D
:100350002A463046BDE8F04100F00BB8000000002E
:100360002D0000002B0000002000000070477047A7
:1003700070472DE9F0470D4699469246044600F134
:1003800024080168880604D5E06921F01001216085
:1003900000E00120A84201DD471B00E00027A16921
:1003A0007A1902EB0900081AA0612078C00602D46D
:1003B0002046AFF30080002608E0D4E901211AF8B6
:1003C00006009047206A401C761C20624E45F4DBF4
:1003D0002078C0060AD52046AFF3008006E0D4E9B5
:1003E000012130209047206A401C2062381EA7F16E
:1003F0000107F4DC07E0D4E9012118F80500904773
:10040000206A401C2062281EA5F10105F3DC20466D
:10041000AFF300802078000602D50220BDE8F08707
:100420000120FBE7074B70B50D467B4400F011F847
:100430000446284600F020F810B14FF0FF3070BDA0
:10044000204670BD0B0B000001694A1C0261087850
:10045000704700B58FB0CDE9013100210591054904
:100460007944CDE9031011466846FFF70FFF0FB03E
:1004700000BD0000E5FFFFFF007B00F0800070473B
:10048000754600F029F8AE4605006946534620F04F
:100490000700854618B020B5FFF7D8FEBDE820401C
:1004A0004FF000064FF000074FF000084FF0000B30
:1004B00021F00701AC46ACE8C009ACE8C009ACE8E3
:1004C000C009ACE8C0098D4670470446AFF3008010
:1004D0002046FFF7A7FE000000487047FC00002000
:1004E0000029816802D041F0010101E021F0010101
:1004F00081607047084B10B5D3F8042307490A40C0
:10050000D0E900142143D0E90240044321431143C0
:10051000C3F8041310BD000000200140E030FCFFD0
:10052000C06C80B27047000030B542680F4B0C7948
:100530001A400B6842EA04221343436082680C4B62
:100540004D791A40D1E9034323438C6844EA4504BA
:10055000234313438360C26A097D22F47002491E5B
:10056000C9B242EA0151C16230BD0000FFFEFFFC8A
:10057000FDF7FFC070B5072609290AD9C568A1F1A2
:100580000A0404EB4404A640B543A3401D43C560E0
:1005900007E0056901EB4104A640B543A3401D43B4
:1005A00005611F23072A09D2446B521E02EB820207
:1005B00093409C4391400C43446370BD0D2A09D283
:1005C000046BD21F02EB820293409C4391400C4388
:1005D000046370BDC46A0D3A02EB820293409C43EF
:1005E00091400C43C46270BD816841F080418160DC
:1005F00070470000044B01228240186809B1104383
:1006000000E09043186070470074004030B5084C1B
:10061000236840F6FE7282409343D1E900252A43C5
:10062000D1E902510D432A4382401A43226030BD72
:1006300000740040034A08B510440830009001607F
:1006400008BD00000074004010B5102000F01CF838
:1006500000280ED00748D0F81012074809B1002131
:1006600000E00121C0F8A412BDE81040102000F005
:1006700005B810BD000040420080424201490860B8
:1006800070470000143C0140034A014600201268F4
:100690000A4200D001207047143C0140F0B500220E
:1006A00001274FF0030C0B6807FA02F52B40AB4211
:1006B0002CD1066853000CFA03F4A64306600E79A9
:1006C000D0F800E09E4046EA0E0606600E79012E44
:1006D00001D0022E12D18668A64386604E79D0F8EA
:1006E00008E09E4046EA0E0686604668AE434660D5
:1006F00045688E799640B6B235434560C568A543D6
:10070000C560CC799C40C3681C43C460521C102A4D
:10071000C9D3F0BD4B07DB0E9A40C90810B500EBFA
:100720008100016A0F249C40A1430162016A1143C8
:10073000016210BD30B50F23C27801780125FAB1EE
:10074000144A126801F1E02102F4E062C2F5E062AD
:10075000C2F30722C2F10404D3404278A240847855
:100760001C401443220181F80024007800F01F018E
:100770008D404009800000F1E020C0F8005130BDFC
:1007800001F01F0085404809800000F1E020C0F81A
:10079000805130BD0CED00E0044A0029116801D001
:1007A000014300E08143116070470000303802408F
:1007B000044A0029116801D0014300E0814311601F
:1007C0007047000040380240044A0029116801D0F7
:1007D000014300E08143116070470000443802404B
:1007E00070B5204B1968204C11F00C0104D0661034
:1007F000042903D0082903D004601BE0066019E037
:10080000184A121F1168C1F38055116801F03F01A9
:1008100015B1B6FBF1F101E0B4FBF1F11468126817
:10082000C4F388146143C2F30142521C5200B1FB6D
:10083000F2F1016019680F2202EA11110B4A545CAF
:100840000168E14041601C68072505EA9424145DB5
:1008500021FA04F484601B6805EA5333D25CD1406A
:10086000C16070BD083802400024F400340000204C
:100870000CB50022274900920192086840F48030AC
:1008800008604FF4A043086800F40030019000981D
:10089000401C0090019810B900989842F3D1086864
:1008A000800334D5012001901A484030026842F09C
:1008B000805202601848026842F4404202601548C3
:1008C000083002680260026842F400420260026876
:1008D00042F4A0520260031F104A1A600A6842F0F4
:1008E00080720A600A689201FCD50D4940F20572D7
:1008F0000A60016821F003010160016841F0020112
:1009000001600168C1F381010229FAD10CBD019295
:100910000CBD000000380240007000400854400741
:10092000003C0240124810B5016841F470010160BA
:100930001048016841F0010101600E4A00210832AF
:10094000116002680C4B1A400260031D0B4A1A60CA
:10095000026822F48022026006480C300160FFF732
:1009600087FF03494FF000608039086010BD000028
:1009700088ED00E000380240FFFFF6FE1030002452
:1009800010B5094C0121204600F01FF801280AD1BA
:1009900006490A68521C0A60486001462046BDE8C4
:1009A000104000F005B810BD000400401800002001
:1009B000C943018270470029018802D041F001013A
:1009C00001E021F001010180704702460020138AF6
:1009D00092890B4202EA010202D0002A00D00120D3
:1009E0007047002A828901D00A4300E08A4382814D
:1009F0007047000030B50288164C174DA0420DD04C
:100A0000A8420BD0B0F1804F08D0144B984205D0CB
:100A1000134B984202D0134B984203D122F070033B
:100A20004A881A43104B984206D0104B984203D084
:100A300022F440730A891A4302804A68C2620A8813
:100A40000285A04201D0A84201D1897A0186012104
:100A5000818230BD000001400004014000040040DC
:100A600000080040000C004000100040001400404E
:100A700070B5114C40F225552946204600F063F828
:100A8000012817D1204600F0EBF80D4BC2B20B48FD
:100A9000596842545868401C5860232A02D058684C
:100AA000402801D90120187029462046BDE8704031
:100AB00000F032B870BD0000001001407C00002042
:100AC0002000002070B5114C40F2255529462046E3
:100AD00000F039F8012817D1204600F0C1F80D4B7D
:100AE000C2B20B48596842545868401C5860232AC7
:100AF00002D05868402801D90120187029462046A4
:100B0000BDE8704000F008B870BD0000004800402B
:100B1000BC0000202C0000200A0A01219140C9439A
:100B2000018070470029818902D041F4005101E021
:100B300021F40051818170470246002012880A4248
:100B400000D00120704770B501F01F050126002478
:100B5000C1F3421306FA05F2012B0FD0022B0FD07E
:100B6000838A4FEA11210088134206FA01F600EA4F
:100B7000060001D000B10124204670BD8389F0E752
:100B8000038AEEE710B5C1F3421301F01F040121FF
:100B9000A140012B07D0022B07D01430002A026895
:100BA00005D00A4304E00C30F8E71030F6E78A433A
:100BB000026010BD7FB50446008A0D46C98820F446
:100BC000405001432182A08941F20C618843A988E9
:100BD0002A8911436A8902431143A181A08A20F422
:100BE0004071A8890843A0826846FFF7F9FD1A48BA
:100BF000844202D01948844201D1039800E002984F
:100C0000A189090400EBC00101EB0010296801D59E
:100C1000490000E08900B0FBF1F06422B0FBF2F182
:100C200009010B096FF018056B4300EB8300A389E2
:100C30001D044FF0320306D503EBC000B0FBF2F009
:100C400000F0070005E003EB0010B0FBF2F000F04D
:100C50000F00084320817FBD0010014000140140B7
:100C60008088C0F308007047C1F308018180704795
:100C7000FEE7000010B501210846FFF78DFD0121B8
:100C80000802FFF7A1FD164840210024016003215E
:100C90000171C47101461348FFF700FD124804605A
:100CA00044608460C460FFF725FC0F4801211838B8
:100CB0000460047141718460046101750B4C01464C
:100CC0002046FFF731FC0023012206212046FFF7D2
:100CD00051FC2046BDE810400121FFF701BC000097
:100CE00000000020000002405C00002000200140C5
:100CF00010B501210846FFF74FFD01214807FFF716
:100D000057FD0C4810210024016003210171C471BA
:100D100001460948FFF7C2FC0848014604604460E8
:100D2000C4600020FFF772FC0121BDE810400020E4
:100D3000FFF760BC08000020000002406C000020AB
:100D400070B5002345F2072401254FF0E02209E0A9
:100D50005461936115611169CE0303D4C907FAD1B7
:100D6000481E70BD401E1361F2D2002070BD4FF0CE
:100D7000E02100230B61C0EBC00000EB4000401EEF
:100D800048618B61012008610869C20303D4C00770
:100D9000FAD1401E70470B610020704710B5012149
:100DA0004020FFF7F9FC09484FF40071012401606D
:100DB00004710321417100218171C1710146044810
:100DC000FFF76CFC0348C0F8A44210BD10000020DF
:100DD00000180240000043422DE9F05F534D804669
:100DE0004FF400704FF0010A286085F804A04FF01E
:100DF000030B002485F805B085F806A05746264663
:100E0000EC7129464A48FFF749FCDFF82891C9F8F8
:100E1000A4621220FFF794FFC9F8A4721E20FFF706
:100E2000A6FF4FF4007028602E7185F805B0AE71F2
:100E3000EE7129463E48FFF731FC4FF47A664D4685
:100E400009E00120641CFFF792FFB44203D34FF086
:100E5000FF30BDE8F09FD5F824020028F1D100242E
:100E600008E00120641CFFF782FF642C02D36FF0BE
:100E70000100EEE7D5F824020028F2D0002408E0B3
:100E80000120641CFFF773FF642C02D36FF0020093
:100E9000DFE7D5F824020028F2D10027A946002672
:100EA0000725002408E00120641CFFF760FF642C84
:100EB00002D36FF00300CCE7D9F824020028F2D067
:100EC0002820FFF754FFD9F8240290B10AFA05F060
:100ED0003043C6B2002408E00120641CFFF747FF3E
:100EE000642C02D36FF00400B3E7D9F82402002881
:100EF000F2D16D1ED5D508F807607F1C052FCEDB1B
:100F000098F8001098F8010098F80220014498F829
:100F100003001044084498F80410C0B2814202D083
:100F20006FF0050095E7002093E700001000002017
:100F3000001802400000434270B5074D044681B2DC
:100F40002846FFF791FE80212846FFF7F5FD00288F
:100F5000F9D0204670BD0000001001401CB50025EE
:100F60002E4600952C460195FFF7C2FEFFF782FE44
:100F7000FFF714FF00F0C0F83948FFF735FB4FF4D6
:100F8000E13000F0E7F84FF47A70FFF7D9FE35A0B2
:100F9000FFF770F9DFF8E890DFF8E8A04FF4167B70
:100FA0004FF06408D9F800004F46584529D36846E9
:100FB000FFF712FF010003D033A0FFF75BF906E053
:100FC0009DF803209DF8021035A0FFF753F93E600D
:100FD0009DF80200C0EB001081009DF8030000EBBB
:100FE000400001EB4007394634A0FFF743F9C7EB57
:100FF000073040F6E441B0FBF1F081B20020FFF78A
:1010000019FBDAF8000057460028CBD01448FFF748
:1010100087FA05443E604046641CB4FBF0F108FBCF
:1010200011410029BED1B5FBF8F040F6E441484338
:1010300040F6FF71B0FBF1F4214624A0FFF71AF946
:101040003C20B4FBF0F100FB11410622B1FBF2F2AF
:10105000B4FBF0F121A0FFF70DF900242546A1E72C
:101060000020014074686973206973204441432063
:10107000303220484F4D45574F524B0D0A0000006B
:10108000180000201C000020646874313120657253
:10109000726F7220636F6465203D2025640D0A0025
:1010A00074656D702066726F6D20646874313120D4
:1010B0003D2025642E25640D0A0000006461635FF5
:1010C0006F7574203D2025640D0A00006164635F24
:1010D000766F6C203D2025640D0A000074656D70EC
:1010E0002066726F6D20414443203D2025642E25EB
:1010F000640D0A0A000000007FB501210220FFF7FD
:1011000057FB6320019042F2CF00ADF800000024AD
:101110000F4DADF80840ADF8024069462846FFF78C
:1011200069FC012211462846FFF75BFC1D208DF863
:101130000C008DF80D4001218DF80E108DF80F1068
:1011400003A8FFF7F7FA01212846FFF734FC7FBD1B
:101150000004004070B50546012188B00846FFF73D
:101160001BFB01211020FFF72FFB02218DF814102B
:101170008DF815104FF4C06000241F4E04908DF8B8
:1011800016408DF8174004A93046FFF787FA07226A
:1011900009213046FFF7BEFA07220A213046FFF741
:1011A000B9FA0095ADF808400C20144DADF8044094
:1011B000ADF80A00ADF80640ADF80C406946284687
:1011C000FFF7F8FC012240F225512846FFF7DAFC30
:1011D00025208DF818008DF819408DF81A4001204F
:1011E0008DF81B0006A8FFF7A5FA01212846FFF796
:1011F00099FC08B070BD00000000024000100140E2
:101200004FF04070E1EE100A704700002C12000809
:101210000000002044000000C40100087012000813
:10122000440000201C070000E0010008000000004E
:1012300000000000000000000000000000000000AE
:101240000000000058020000000000000000000044
:10125000000000000000000000000000000000008E
:10126000000000000102030401020304060708094C
:0400000508000231BC
:00000001FF
