:020000040800F2
:1000000068060020290200083102000833020008B7
:10001000350200083702000839020008000000001D
:100020000000000000000000000000003B0200088B
:100030003D020008000000003F02000841020008E5
:10004000430200084302000843020008430200087C
:10005000430200084302000843020008430200086C
:10006000430200084302000843020008430200085C
:10007000430200084302000843020008430200084C
:10008000430200084302000843020008430200083C
:10009000430200084302000843020008430200082C
:1000A000430200084302000843020008430200081C
:1000B000430200084302000843020008430200080C
:1000C00043020008430200084302000843020008FC
:1000D00043020008430200084302000843020008EC
:1000E00043020008430200084302000843020008DC
:1000F00043020008430200084302000843020008CC
:1001000043020008430200084302000843020008BB
:1001100043020008430200084302000843020008AB
:10012000430200084302000843020008430200089B
:10013000430200084302000843020008430200088B
:10014000430200084302000843020008430200087B
:10015000430200084302000843020008430200086B
:10016000430200084302000843020008430200085B
:10017000430200084302000843020008430200084B
:10018000430200084302000800F002F800F03CF8C7
:100190000AA090E8000C82448344AAF10107DA45E2
:1001A00001D100F031F8AFF2090EBAE80F0013F0F8
:1001B000010F18BFFB1A43F001031847F8030000B2
:1001C00018040000103A24BF78C878C1FAD8520742
:1001D00024BF30C830C144BF04680C6070470000C1
:1001E0000023002400250026103A28BF78C1FBD840
:1001F000520728BF30C148BF0B6070471FB500F0E1
:10020000D3F91FBD10B510BD00F031F81146FFF74E
:10021000F5FF00F05FF900F04FF803B4FFF7F2FFCD
:1002200003BC00F053F80000094880470948004724
:10023000FEE7FEE7FEE7FEE7FEE7FEE7FEE7FEE796
:10024000FEE7FEE704480549054A064B70470000F3
:1002500025040008890100086800002068060020C5
:10026000680200206802002070477047704775469A
:1002700000F028F8AE4605006946534620F0070016
:10028000854618B020B5FFF7DDFFBDE820404FF0F0
:1002900000064FF000074FF000084FF0000B21F070
:1002A0000701AC46ACE8C009ACE8C009ACE8C0093D
:1002B000ACE8C0098D4670470446AFF30080204685
:1002C000FFF7ABFF004870470800002001491820E5
:1002D000ABBEFEE7260002007047F0B50022012702
:1002E0004FF0030C0B6807FA02F52B40AB422CD100
:1002F000066853000CFA03F4A64306600E79D0F8A2
:1003000000E09E4046EA0E0606600E79012E01D0FE
:10031000022E12D18668A64386604E79D0F808E096
:100320009E4046EA0E0686604668AE4346604568D3
:100330008E799640B6B235434560C568A543C56021
:10034000CC799C40C3681C43C460521C102AC9D39A
:10035000F0BD018370470000044A0029116801D0F4
:10036000014300E0814311607047000030380240D3
:100370000CB50022274900920192086840F48030B1
:1003800008604FF4A043086800F400300190009822
:10039000401C0090019810B900989842F3D1086869
:1003A000800334D5012001901A484030026842F0A1
:1003B000805202601848026842F4404202601548C8
:1003C000083002680260026842F40042026002687B
:1003D00042F4A0520260031F104A1A600A6842F0F9
:1003E00080720A600A689201FCD50D4940F20572DC
:1003F0000A60016821F003010160016841F0020117
:1004000001600168C1F381010229FAD10CBD01929A
:100410000CBD00000038024000700040083040076A
:10042000003C0240124810B5016841F470010160BF
:100430001048016841F0010101600E4A00210832B4
:10044000116002680C4B1A400260031D0B4A1A60CF
:10045000026822F48022026006480C300160FFF737
:1004600087FF03494FF000608039086010BD00002D
:1004700088ED00E000380240FFFFF6FE1030002457
:10048000002822D0114A1249D2F808323BB90B6831
:1004900023F003030B600B6843F002030B60D2F8F8
:1004A0000C322BB90B6823F003030B600B680B6055
:1004B000D2F810323BB90B6823F003030B600B68D2
:1004C00043F001030B60401EDED170470000424242
:1004D0000838024001212020FFF73EFF01211020B3
:1004E000FFF73AFF2B4D4FF00108032085F80480F9
:1004F00068710024AC714602DFF89C90EC712946CB
:1005000048462E60FFF7E9FEDFF890A03701294644
:1005100050462F60FFF7E1FE31464846FFF719FFCE
:1005200039465046FFF715FF2C711C2028602946DC
:100530005046FFF7D2FE4546194E1A4F4FF4A028F9
:10054000C6F8A442404606F52976FFF799FF3560C4
:1005500074604046FFF794FF7560C7F8B4424046A8
:1005600007F52D77FFF78CFF3D607C604046FFF775
:1005700087FF7D603C604046FFF782FF3D6074600E
:100580004046A7F52D77FFF77BFF7560A6F5297626
:10059000D6E70000000000200014024000100240D6
:1005A00000804242000042424FF04070E1EE100AEB
:1005B00070470000D405000800000020080000007B
:1005C000C4010008DC0500080800002060060000E7
:0C05D000E0010008000000000000000036
:0400000508000229C4
:00000001FF
